:10000000000004205B59050055DA0400550000008B
:1000100057DA040059DA04005BDA0400000000003B
:100020000000000000000000000000005DDA040095
:100030005FDA04000000000061DA040063DA040003
:10004000034C206804348047FBE74CF0D4FDFEE706
:04005000547A0D00D1
:1000540008490A68002AFED41EF0040F0CBFEFF30F
:100064000880EFF3098042F000420A60816902319E
:08007400816170472CED00E0F2
:10007C006FDB040000000000C3600500436D0D0041
:08008C0000000000000000006C
:10009400E6720D0054760D00F3720D00836D0D00B1
:1000A40008730D0019730D006EC1050032730D0045
:0400B40068760D005D
:1000B80000000000FFFF000000000000000000003A
:1000C80001000400000000001D2A050000000000D7
:1000D8000200000001000000CB240500020000001F
:1000E8000200000001000000872605000300000050
:1000F8000200000001000000DD26050004000000E9
:1001080002000100040000000000000006000000DA
:1001180002000200040000004D270500070000004F
:1001280002000300050000000000000008000000B5
:1001380002000200040000000000000009000000A6
:100148000200010005000000779805000200000089
:100158000300000001000000CB2405000A00000095
:100168000300000001000000872605000B000000C6
:100178000300000001000000DD2605000C0000005F
:100188000300000004000000000000000E00000052
:1001980003000100060000004D2805000F000000C4
:1001A800030002000400000000000000100000002E
:1001B8000300010005000000779805000A00000010
:1001C80004000080070000002F2A0500010000003D
:1001D8000100000001000000CB240500120000000F
:1001E8000100000001000000872605001300000040
:1001F8000100000001000000DD26050014000000D9
:1002080001000000030000000000000016000000CC
:100218000100000007000000A329050017000000E6
:1002280001000100050000000000000018000000A7
:100238000100020005000000000000001900000095
:100248000100030004000000000000001A00000084
:100258000100020005000000000000001B00000073
:100268000100010005000000000000001C00000063
:100278000100000003000000000000001D00000055
:100288000100000007000000779805001200000038
:1002980005000080040000002F2A05001F00000050
:1002A8000500018003000000412A0500010000004C
:1002B8000600000001000000CB240500200000001B
:1002C800060000000100000087260500210000004C
:1002D8000600000001000000DD26050022000000E5
:1002E8000600000004000000BB9A0500240000007E
:1002F8000600010004000000BB9A0500250000006C
:1003080006000100000000007798050020000000AA
:1003180007000080050000002F2A050001000000EA
:100328000700018005000000412A050001000000C7
:100338000800000001000000CB2405002800000090
:1003480008000000010000008726050029000000C1
:100358000800000001000000DD2605002A0000005A
:1003680008000100080000002F2705002C000000ED
:10037800080001000C0000000B2805002D000000FB
:100388000800010000000000779805002800000020
:1003980009000080030000002F2A05002F0000003C
:1003A8000900018004000000000000003000000087
:1003B8000900028004000000412A05003100000005
:1003C8000900038004000000412A05000100000024
:1003D8000A00020004000000CB24050033000000DE
:1003E8000A00030004000000CB24050032000000CE
:1003F8000A00020001000000872605003400000002
:100408000A00020001000000DD260500350000009A
:100418000A000000040000005F9905003700000092
:100428000A000100040000005F9905003800000080
:100438000A00010000000000779805003200000063
:100448000B00020008000000000000003A00000055
:100458000B00010008000000000000003B00000045
:100468000B00000008000000000000000000000071
:100478000C00008004000000000000003D000000A7
:100488000C00010004000000000000003E00000015
:100498000C00020004000000000000003F00000003
:1004A8000C00030004000000000000000000000031
:1004B8000D00008004000000000000004100000062
:1004C8000D00018004000000000000004000000052
:1004D8000D0002800600000000000000430000003C
:1004E8000D0003800600000000000000440000002A
:1004F8000D0004800600000000000000000000005D
:100508000E0000800100000000000000450000000F
:100518000E000180080000007B6E05004700000007
:100528000E000280060000000000000048000000E5
:100538000E0003800400000000000000000000001E
:100548000F00008006000000000000004A000000C4
:100558000F00018006000000000000004B000000B2
:100568000F00008006000000000000004C000000A2
:100578000F00018006000000000000004D00000090
:100588000F00028006000000000000004E0000007E
:100598000F00038006000000000000004F0000006C
:1005A8000F0004800600000000000000500000005A
:1005B8000F00058006000000000000005100000048
:1005C8000F00068006000000000000005200000036
:1005D8000F00078006000000000000005300000024
:1005E8000F00088006000000000000005400000012
:1005F8000F00098006000000000000000000000055
:1006080010000000FFFF00000000000000000000D4
:100618001000000004000000000000005700000067
:100628001000010004000000000000005800000055
:100638001000020004000000000000005900000043
:100648001000030004000000000000005600000035
:10065800100004000C00000000000000550000001D
:100668001000058006000000000000005A0000008D
:100678001000060004000000000000005D000000FB
:1006880010000600040000003F6E05005500000041
:10069800100007000A000000000000005F000000D2
:1006A800100008000A000000DBEE040060000000F3
:1006B800100009000A0000002BEE04006100000091
:1006C80010000A000A00000000000000620000009C
:1006D80010000B000A00000000000000630000008A
:1006E80010000C000A000000000000006400000078
:1006F80010000D00FFFF00000000000000000000D7
:1007080010000E0005000000000000006600000058
:1007180010000F000500000019EE0400670000003B
:1007280010001000050000002BEE04006800000017
:100738001000110005000000000000006900000022
:100748001000120005000000000000006A00000010
:100758001000130005000000000000006B000000FE
:100768001000140005000000000000006C000000EC
:100778001000150005000000000000006D000000DA
:1007880010001600FFFF000000000000000000003D
:10079800110000000A000000C1F004006F00000012
:1007A800110001000A000000C1F004006E00000002
:1007B8001100000004000000EBF1040071000000CB
:1007C8001100000004000000EBF1040072000000BA
:1007D8001100010004000000EBF1040073000000A8
:1007E8001100010004000000EBF104007400000097
:1007F8001100020004000000EBF104007500000085
:100808001100020004000000EBF104007600000073
:100818001100030004000000EBF104007700000061
:100828001100030004000000EBF104007000000058
:10083800110004000A000000476C05007900000060
:100848001100050008000000DBEC04007A0000003D
:100858001100040008000000000000007000000003
:100868001100060003000000000000007C000000EA
:1008780011000600030000003F6E05007000000034
:100888001100070005000000000000007E000000C5
:100898001100080005000000AB6D05007F00000096
:1008A80011000900050000002BEE04008000000084
:1008B80011000A000500000000000000810000008F
:1008C80011000B00FFFF0000000000000000000006
:1008D80011000C000500000000000000830000006B
:1008E80011000D000500000019EE0400840000004E
:1008F80011000E00050000002BEE0400850000002A
:1009080011000F0005000000000000008600000034
:100918001100100005000000000000008700000022
:100928001100110005000000000000008800000010
:1009380011001200050000000000000089000000FE
:100948001100130005000000000000008A000000EC
:1009580011001400FFFF000000000000000000006C
:10096800120000000A000000C1F004008C00000022
:10097800120001000A000000C1F004008B00000012
:100988001200000003000000EBF104008E000000DC
:100998001200000003000000EBF104008F000000CB
:1009A8001200010003000000EBF1040090000000B9
:1009B8001200010003000000EBF1040091000000A8
:1009C8001200020003000000EBF104009200000096
:1009D8001200020003000000EBF104009300000085
:1009E8001200030003000000EBF104009400000073
:1009F8001200030003000000EBF104008D0000006A
:100A0800120004000A000000476C05009600000070
:100A1800120005800A000000A76C0500970000007E
:100A2800120004000A000000000000008D00000011
:100A380012000600030000000000000099000000FA
:100A480012000600030000003F6E05008D00000044
:100A58001200070005000000000000009B000000D5
:100A68001200080005000000AB6D05009C000000A6
:100A780012000900050000002BEE04009D00000094
:100A880012000A0005000000000000009E0000009F
:100A980012000B00FFFF0000000000000000000033
:100AA80012000C000500000000000000A00000007B
:100AB80012000D000500000019EE0400A10000005E
:100AC80012000E00050000002BEE0400A20000003A
:100AD80012000F000500000000000000A300000045
:100AE800120010000500000000000000A400000033
:100AF800120011000500000000000000A500000021
:100B0800120012000500000000000000A60000000E
:100B1800120013000500000000000000A7000000FC
:100B280012001400FFFF0000000000000000000099
:100B3800000000000A000000C1F00400A900000045
:100B4800000001000A000000C1F00400A800000035
:100B58000000000003000000EBF10400AB000000FF
:100B68000000000003000000EBF10400AC000000EE
:100B78000000010003000000EBF10400AD000000DC
:100B88000000010003000000EBF10400AE000000CB
:100B98000000020003000000EBF10400AF000000B9
:100BA8000000020003000000EBF10400B0000000A8
:100BB8000000030003000000EBF10400B100000096
:100BC8000000030003000000EBF10400AA0000008D
:100BD8000000040008000000476C0500B300000096
:100BE8000000050008000000476C0500B400000084
:100BF800000006000600000069ED0400AA000000DD
:100C0800000007000200000000000000B60000001D
:100C180000000700020000003F6E0500AA00000067
:100C2800000008000800000000000000B8000000F4
:100C38000000090008000000AB6D0500B9000000C5
:100C480000000A000600000000000000BA000000D2
:100C580000000B00060000002BEE0400BB000000A3
:100C680000000C00FFFF0000000000000000000072
:100C780000000D000500000000000000BD0000009D
:100C880000000E000500000019EE0400BE00000080
:100C980000000F000500000000000000BF00000079
:100CA80000001000050000002BEE0400C00000004A
:100CB800000011000500000000000000C100000055
:100CC800000012000500000000000000C200000043
:100CD800000013000500000000000000C300000031
:100CE80000001400FFFF00000000000000000000EA
:100CF800130000000A000000C1F00400C500000055
:100D0800130001000A000000C1F00400C400000044
:100D18001300000002000000EBF10400C70000000F
:100D28001300000002000000EBF10400C8000000FE
:100D38001300010002000000EBF10400C9000000EC
:100D48001300010002000000EBF10400CA000000DB
:100D58001300020002000000EBF10400CB000000C9
:100D68001300020002000000EBF10400CC000000B8
:100D78001300030002000000EBF10400CD000000A6
:100D88001300030002000000EBF10400C60000009D
:100D98001300040008000000476C0500CF000000A5
:100DA8001300050008000000476C0500D000000093
:100DB8001300060008000000C3ED0400C600000090
:100DC800130007000200000000000000D20000002D
:100DD80013000700020000003F6E0500C600000077
:100DE800130008000800000000000000D400000004
:100DF8001300090008000000AB6D0500D5000000D5
:100E080013000A000400000000000000D6000000E3
:100E180013000B00040000002BEE0400D7000000B4
:100E280013000C000400000000000000D8000000BF
:100E380013000D00FFFF000000000000000000008C
:100E4800140000800400000000000000DA00000028
:100E5800140001800400000000000000D900000018
:100E6800140002800600000000000000DC00000002
:100E7800140003800600000000000000DD000000F0
:100E880014000480060000000000000000000000BC
:100E9800150000000A000000C1F00400DF00000097
:100EA800150001000A000000C1F00400DE00000087
:100EB8001500000003000000EBF10400E100000051
:100EC8001500000003000000EBF10400E200000040
:100ED8001500010003000000EBF10400E30000002E
:100EE8001500010003000000EBF10400E40000001D
:100EF8001500020003000000EBF10400E50000000B
:100F08001500020003000000EBF10400E6000000F9
:100F18001500030003000000EBF10400E7000000E7
:100F28001500030003000000EBF10400E0000000DE
:100F38001500040008000000476C0500E9000000E7
:100F48001500050008000000476C0500EA000000D5
:100F58001500060008000000536D0500E0000000C1
:100F6800150007000200000000000000EC0000006F
:100F780015000700020000003F6E0500E0000000B9
:100F8800150008000800000000000000EE00000046
:100F98001500090008000000AB6D0500EF00000017
:100FA80015000A000800000000000000F000000022
:100FB80015000B00080000002BEE0400F1000000F3
:100FC80015000C000800000000000000F2000000FE
:100FD80015000D000800000000000000F3000000EC
:100FE80015000E00FFFF00003DEE040000000000A9
:100FF800160000000600000000000000F5000000D8
:10100800160001800700000000000000F400000046
:10101800170000000600000000000000F7000000B4
:10102800170001800600000000000000F600000024
:10103800180000000600000000000000F900000091
:10104800180001000600000000000000F800000081
:10105800190000800500000000000000FB000000EF
:101068001900018005000000AB6D0500FC000000C0
:10107800190002800500000000000000FD000000CB
:10108800190003800A0000007B6E0500FE000000C6
:10109800190004800A0000000000000000000000A1
:1010A8001A00000006000000000000000001000017
:1010B8001A00010006000000000000000101000005
:1010C8001A000200060000000000000002010000F3
:1010D8001A000300060000000000000003010000E1
:1010E8001A000200060000000000000004010000D1
:1010F8001A0001000600000000000000FF000000C8
:101108001B000000060000000000000006010000AF
:101118001B0001000600000000000000070100009D
:101128001B0002000600000000000000080100008B
:101138001B00030006000000000000000901000079
:101148001B00020006000000000000000A01000069
:101158001B0001000600000000000000050100005F
:101168001C0000000A000000000000000C01000044
:101178001C0001800A000000000000000B010000B4
:101188001D0000000A000000000000000E01000021
:101198001D0001800A000000000000000D01000091
:1011A8001E0000000A0000000000000010010000FE
:1011B8001E0001800A000000000000000F0100006E
:1011C8001F000000FFFF00000000000000000000FA
:1011D80020000000FFFF00000000000000000000E9
:1011E800210000800600000000000000140100003B
:1011F8002100018006000000000000001501000029
:101208002100028006000000000000001601000016
:101218002100038006000000000000001701000004
:1012280021000280060000000000000018010000F4
:1012380021000180060000000000000013010000EA
:101248002200008006000000000000001A010000D3
:101258002200018006000000000000001B010000C1
:101268002200028006000000000000001C010000AF
:1012780022000380060000000000000019010000A1
:1012880023000080FFFF00000000000000000000B5
:101298002400008006000000000000001F0100007C
:1012A800240001800600000000000000200100006A
:1012B8002400028006000000000000002101000058
:1012C8002400038006000000000000002201000046
:1012D8002400028006000000000000002301000036
:1012E8002400018006000000000000001E0100002C
:1012F8002500008006000000000000002501000015
:101308002500010006000000000000002401000084
:1013180026000000FFFF00000000000000000000A1
:1013280027000000FFFF0000000000000000000090
:1013380028000000FFFF000000000000000000007F
:1013480029000000FFFF000000000000000000006E
:101358002A000000FFFF000000000000000000005D
:101368002B000000FFFF000000000000000000004C
:101378002C000000FFFF000000000000000000003B
:101388002D000000FFFF000000000000000000002A
:101398002E000000FFFF0000000000000000000019
:1013A8002F000000FFFF0000000000000000000008
:1013B80030000000FFFF00000000000000000000F7
:1013C80031000080FFFF0000000000000000000066
:1013D80032000000FFFF00000000000000000000D5
:1013E80033000080FFFF0000000000000000000044
:1013F80034000080FFFF0000000000000000000033
:1014080035000000FFFF00000000000000000000A1
:1014180036000080040000000000000037010000D2
:1014280036000180040000000000000038010000C0
:1014380036000280040000000000000039010000AE
:1014480036000380040000000000000036010000A0
:10145800FFFF5500640056000000000000005C001B
:10146800FF1300005A005E00650024000000000021
:1014780000001000000038006400000000000000B8
:10148800060C0000BC0B6E00140070001B00080066
:1014980001007B00C815000078007D00820026004E
:1014A800080000000000140000003800640000007C
:1014B8002D0000000600400009008B001E008D0072
:1014C8001C00080000009800AA15000095009A006A
:1014D8009F002700080000000000140000003800EA
:1014E800640000002D00000006004000B90BA800B1
:1014F8003C00AA001E0008000000B500C815B20094
:10150800B200B700BC002900080000000000140069
:1015180000003800640000002E00000006004000B3
:10152800BA0BC4009600C600200008002200D100B3
:10153800B414CE000000D30000002B000A00000005
:1015480000001E0000003800900100002F0000007D
:10155800060040003A00C4009600C60020000800BB
:101568002200D100B414CE000000D30000002B00EC
:101578000A00000000001E00000038009001000072
:101588002F00000006004400BB0BDE00E803E0006B
:10159800210008000000EB003214E800E800ED002C
:1015A80000002C00080000000000180000004000A7
:1015B800E80300002F00000006004000FFFFD900EC
:1015C800E80300000A000800000000000000000016
:1015D8000000DB0000000B0000000F000000060008
:1015E8000000080064000800000000001006010068
:1015F800F307F800140000000000080000000000D5
:10160800000000000000FA000000310000000000A7
:1016180000000A0000002A0064000000000000002A
:1016280006000800FFFF4000E80300000A00080069
:1016380000000000000000000000420000000B0055
:1016480000000A0000000600000008006400030013
:101658000000000010060100FFFF4500E80300003D
:101668000000080000000000000000000000460024
:10167800000031000000140000000B00000008000A
:10168800640014000000000010060100FFFF3C0089
:10169800E80300000000080000000000000000004F
:1016A800000000000000000000000000000014001E
:1016B800000010006400000000000000100200009C
:1016C800FFFF3900E80300000000080000000000E8
:1016D8000000000000000000000000000000000002
:1016E800000014000000100064000000000000006A
:1016F80010000000FFFF4900E80300000000080098
:1017080000000000000000000000000000000000D1
:101718000000000000001400000010006400000039
:1017280000000000100200000E000000E8030000A6
:101738000000080000000000000000000000000099
:10174800000000000000000000001400000010006D
:10175800640000000000000018000000E207F40028
:10176800E80300000000080000000000000000007E
:10177800000000000000000000000000000014004D
:1017880000001000640000000000000001000000DC
:10179800E307F600E803000000000800000000006E
:1017A8000000000000000000000000000000000031
:1017B8000000140000001000640000000000000099
:1017C80001000000DE07FF00E80300000000080039
:1017D8000000000000000000000000000000000001
:1017E8000000000000001400000010006400000069
:1017F8000000000001008000DF070501E803000089
:1018080000000800000000000000000000000000C8
:10181800000000000000000000001400000010009C
:1018280064000000000000000100800005000B01BA
:10183800E8030000000008000000000000000000AD
:10184800000000000000000000000000000014007C
:10185800000010006400000000000000010000000B
:101868000D000D01E8030000000008000000000062
:101878000000000000000000000000000000000060
:1018880000001400000010006400000000000000C8
:101898000100000006000F01E80300000000080036
:1018A8000000000000000000000000000000000030
:1018B8000000000000001400000010006400000098
:1018C8000000000001000000DB071101E803000030
:1018D80000000800000000000000000000000000F8
:1018E80000000000000000000000140000001000CC
:1018F800640000000000000001000000DC07120185
:10190800E8030000000008000000000000000000DC
:1019180000000000000000000000000000001400AB
:10192800000010006400000000000000010000003A
:10193800DD071301E80300000000080000000000B4
:10194800000000000000000000000000000000008F
:1019580000001400000010006400000000000000F7
:1019680001008000E8071901E803000000000800F2
:10197800000000000000000000000000000000005F
:1019880000000000000014000000100064000000C7
:101998000000000001008000E9071D01E8030000C5
:1019A8000000080000000000000000000000000027
:1019B80000000000000000000000140000001000FB
:1019C800640000000000000001000000EA071E019A
:1019D800E80300000000080000000000000000000C
:1019E80000000000000000000000000000001400DB
:1019F80000001000640000000000000001008000EA
:101A0800FD072401E80300000000080000000000B2
:101A180000000000000000000000000000000000BE
:101A28000000140000001000640000000000000026
:101A380001008000D7072601E80300000000080025
:101A4800000000000000000000000000000000008E
:101A580000000000000014000000100064000000F6
:101A6800000000000100000000082701E803000052
:101A78000000080000000000000000000000000056
:101A8800000000000000000000001400000010002A
:101A9800640000000000000001000000DA072801CF
:101AA800E80300000000080000000000000000003B
:101AB800000000000000000000000000000014000A
:101AC8000000100064000000000000000100000099
:101AD800FE072901E80300000000080000000000DC
:101AE80000000000000000000000000000000000EE
:101AF8000000140000001000640000000000000056
:101B080001000000D8072A01E803000000000800CF
:101B180000000000000000000000000000000000BD
:101B28000000000000001400000010006400000025
:101B3800000000000100000001082B01E80300007C
:101B48000000080000000000000000000000000085
:101B58000000000000000000000014000000100059
:101B680064000000000000000100000008002C01D3
:101B7800E80300000000080000000000000000006A
:101B88000000000000000000000000000000140039
:101B980000001000640000000000000001000000C8
:101BA800D2072D01E8030000000008000000000033
:101BB800000000000000000000000000000000001D
:101BC8000000140000001000640000000000000085
:101BD80001000000D5072E01E803000000000800FE
:101BE80000000000000000000000000000000000ED
:101BF8000000000000001400000010006400000055
:101C08000000000001000000D3072F01E8030000D6
:101C180000000800000000000000000000000000B4
:101C28000000000000000000000014000000100088
:101C3800640000000000000001000000D10730012E
:101C4800E803000000000800000000000000000099
:101C58000000000000000000000000000000140068
:101C680000001000640000000000000001000000F7
:101C7800EC073101E8030000000008000000000044
:101C8800000000000000000000000000000000004C
:101C980000001000000010006400000000000000B8
:101CA800020000002E003601E803000000000800D2
:101CB800000000000000000000000000000000001C
:101CC8000000000000001000000010006400000088
:101CD800000000000200000030003501E8030000A9
:101CE80000000800000000000000000000000000E4
:101CF80000000000000000000000100000001000BC
:101D0800640000000000000002000000220033010F
:101D1800E8030000000008000000000000000000C8
:101D28000000000000000000000000000000140097
:101D38000000100064000000000000000000000027
:101D480023003401E8030000000008000000000040
:101D5800000000000000000000000000000000007B
:101D680000001000000010006400000000000000E7
:101D7800020000000F006400E803000000000800F3
:101D8800000000000000000000000000000000004B
:101D980000000000000014000000100064000000B3
:101DA80000000000000000000A006D00E8030000C9
:101DB8000000080000000000000000000000000013
:101DC80000000000000000000000140000001000E7
:101DD8006400000000000000000000000C006D001E
:101DE800E8030000000008000000000000000000F8
:101DF80000000000000000000000000000001400C7
:101E08000000100064000000000000000000000056
:101E180018003201E803000000000800000000007C
:101E280000000000000000000000000000000000AA
:101E38000000140000001000640000000000000012
:101E4800000000000000000000000000000000008A
:101E5800000000000000000000000000000000007A
:101E6800000000000000000000000000000000006A
:081E7800000000000000000062
:101E800000000000FFFFFFFFFFFFFF7F5555555586
:101E9000FFFFFF3F33333333AAAAAA2A24499224EF
:101EA000FFFFFF1F1CC7711C9999991974D1451721
:101EB00055555515133BB1139224491211111111A7
:101EC000FFFFFF0F0F0F0F0F8EE3380E5E43790DEC
:101ED000CCCCCC0C0CC3300CBAE8A20B2C64210B7C
:101EE000AAAAAA0AA3703D0A899DD8095E427B0965
:101EF00049922409B0DCD3088888880884104208F5
:101F0000FFFFFF077CF0C10787878707077550072A
:101F1000C7711C07453EEB06AFA1BC0606699006DB
:101F20006666660663703E0686611806D017F4057D
:101F30005D74D105055BB00516B290050A627205A5
:101F4000555555052978390551B81E05050505056E
:101F5000C44EEC043E87D4042FA1BD044A90A704CC
:101F6000244992041FC17D0458EE690497C75604A2
:101F700044444404535C32044208210404411004E4
:101F8000FFFFFF03033FF0033EF8E0033526D203D3
:101F9000C3C3C3030ECCB503833AA803D10A9B0382
:101FA000E3388E03E0C08103229F750336D06903B6
:101FB000D7505E03EC1D530383344803D2913D0395
:101FC000333333031F16290331381F0321971503B9
:101FD000C3300C0303030303E80BFA029049F10238
:101FE0002EBAE8020B5CE002822DD802022DD0024C
:101FF0000B59C8022CB0C0020531B90246DAB10251
:10200000AAAAAA02FDA0A30214BC9C02D4FA9502BB
:10201000285C8F020CDF88028282820297457C0254
:1020200062277602022770029F436A02697C64027B
:1020300097D05E02693F590225C85302176A4E02C3
:1020400092244902F0F643028FE03E02D5E03902C5
:102050002CF7340202233002CB632B0202B9260292
:1020600022222202AD9E1D02292E190221D0140225
:1020700021841002BA490C028220080210080402CE
:10208000FFFFFF01F007FC01811FF8015946F40131
:102090001F7CF0017BC0EC011A13E901AC73E50170
:1020A000E1E1E1016E5DDE0107E6DA01657BD70162
:1020B000411DD40158CBD0016885CD01304BCA01F8
:1020C000711CC701F0F8C30170E0C001B8D2BD01B6
:1020D00091CFBA01C3D6B7011BE8B4016403B201C2
:1020E0006B28AF010157AC01F68EA9011AD0A601E9
:1020F000411AA4013F6DA101E9C89E01142D9C0164
:10210000999999014F0E97010F8B9401B40F920189
:10211000189C8F0118308D0190CB8A015F6E880169
:102120006118860177C98301818181015F407F0148
:10213000F4057D0120D27A01C8A47801CE7D760114
:10214000175D740187427201052E7001761F6E01C2
:10215000C1166C01CD136A0181166801C61E6601A5
:10216000852C6401A73F620116586001BB755E01B2
:1021700082985C0156C05A0123ED5801D31E5701C5
:1021800055555501949053017ED0510101155001D0
:102190000A5E4E0188AB4C016AFD4A019E5349011B
:1021A00014AE4701BC0C4601866F440162D6420161
:1021B0004141410113B03F01CB223E015A993C01FC
:1021C000B1133B01C291390181133801DF98360107
:1021D000CF21350145AE3301343E320190D130017B
:1021E0004B682F015C022E01B49F2C014A402B0149
:1021F00012E42901018B28010B35270127E2250173
:10220000499224016745230178FB210170B4200124
:1022100047701F01F32E1E016AF01C01A4B41B01BC
:10222000967B1A01384519018111180168E01601E1
:10223000E5B11501F0851401815C13018E351201A1
:102240001111110101EF0F0156CF0E010AB20D015C
:1022500014970C016E7E0B0110680A01F3530901FB
:102260001042080160320701DD2406017F190501D3
:10227000411004011B0903010804020101010101CD
:10228000FFFFFF00FF00FF00F803FE00E508FD0070
:10229000C00FFC008518FB002C23FA00B22FF900B8
:1022A0000F3EF8003F4EF7003D60F6000374F50066
:1022B0008D89F400D5A0F300D6B9F2008BD4F100DB
:1022C000F0F0F000000FF000B72EEF000E50EE001F
:1022D0000373ED009197EC00B2BDEB0064E5EA00FA
:1022E000A00EEA006539E900AC65E8007293E700EA
:1022F000B4C2E6006CF3E5009825E5003259E4002D
:10230000388EE300A6C4E20078FCE100A935E100C4
:102310003870E0001FACDF005CE9DE00EB27DE0078
:10232000C867DD00F1A8DC0061EBDB00172FDB00E4
:102330000D74DA0042BAD900B201D900594AD80066
:102340003594D70043DFD600802BD600E978D5003E
:102350007BC7D4003217D4000D68D30008BAD2006E
:10236000200DD2005461D1009FB6D000000DD000E6
:102370007464CF00F8BCCE008A16CE002771CD0061
:10238000CCCCCC007829CC002787CB00D8E5CA007C
:102390008745CA0033A6C900DA07C900786AC800B1
:1023A0000CCEC7009332C7000C98C60074FEC5005F
:1023B000C865C50007CEC4002F37C4003DA1C300C7
:1023C000300CC3000678C200BBE4C1005052C1000B
:1023D000C0C0C0000C30C0002FA0BF002A11BF0039
:1023E000FA82BE009CF5BD001069BD0053DDBC0043
:1023F0006452BC0040C8BB00E73EBB0056B6BA0002
:102400008B2EBA0086A7B9004321B900C39BB80040
:102410000217B8000093B700BB0FB700318DB600AC
:10242000600BB600488AB500E609B500398AB400E9
:10243000400BB400F98CB300630FB3007C92B20080
:102440004216B200B59AB100D31FB1009BA5B000EF
:102450000B2CB00021B3AF00DD3AAF003EC3AE009D
:10246000414CAE00E6D5AD002B60AD000FEBAC00EB
:102470009176AC00B002AC00698FAB00BD1CAB0024
:10248000AAAAAA002F39AA004AC8A900FA57A90087
:102490003FE8A8001779A800800AA8007B9CA70045
:1024A000052FA7001DC2A600C455A600F6E9A50089
:1024B000B57EA500FD13A500CFA9A4002940A40066
:1024C0000AD7A300716EA3005E06A300CF9EA200F0
:1024D000C337A20039D1A100316BA100A905A10029
:1024E000A0A0A000163CA00009D89F007A749F000D
:1024F00065119F00CCAE9E00AD4C9E0006EB9D008A
:10250000D8899D0021299D00E1C89C0016699C0086
:10251000C0099C00DEAA9B006F4C9B0072EE9A00E3
:10252000E7909A00CD339A0022D79900E77A990074
:102530001A1F9900BAC39800C8689800410E980005
:1025400025B49700755A97002E01970050A8960061
:10255000DA4F9600CCF7950025A09500E448950049
:1025600009F29400929B940080459400D1EF93006F
:10257000859A93009B45930013F19200EB9C920087
:1025800024499200BCF59100B3A29100095091003A
:10259000BCFD9000CCAB9000385A90000009900030
:1025A00023B88F00A1678F0079178F00ABC78E000B
:1025B00035788E0017298E0052DA8D00E38B8D005E
:1025C000CB3D8D0008F08C009CA28C0084558C00C3
:1025D000C0088C0050BC8B0034708B006A248B00C8
:1025E000F2D88A00CD8D8A00F8428A0074F88900FA
:1025F00040AE89005C648900C71A890080D18800D8
:1026000088888800DD3F880080F787006FAF8700EB
:10261000AB6787003220870005D9860022928600AA
:102620008A4B86003C05860037BF85007B79850094
:1026300008348500DDEE8400F9A984005D6584001E
:1026400008218400F9DC830030998300AC558300B5
:102650006E12830075CF8200BF8C82004E4A8200CA
:102660002008820035C681008D84810027438100C7
:102670000402810021C18000808080002040800011
:10268000FFFF7F001FC07F007F807F001E417F0013
:10269000FC017F0018C37E0072847E000A467E0023
:1026A000E0077E00F3C97D00428C7D00CE4E7D00A8
:1026B00096117D009AD47C00D9977C00535B7C00F6
:1026C000071F7C00F6E27B001FA77B00826B7B006C
:1026D0001E307B00F3F47A0001BA7A00487F7A005A
:1026E000C6447A007C0A7A006AD079008F96790015
:1026F000EB5C79007D23790045EA780044B17800ED
:1027000078787800E13F78008007780053CF770031
:102710005B977700975F770007287700AAF076002D
:1027200081B976008B827600C84B7600371576002B
:10273000D9DE7500ACA87500B2727500E83C750072
:1027400050077500E9D17400B29C7400AC67740046
:10275000D632740030FE7300B9C9730072957300ED
:102760005A617300702D7300B6F972002AC67200A8
:10277000CC9272009B5F7200992C7200C4F97100B8
:102780001CC77100A1947100536271003130710057
:102790003CFE700072CC7000D49A700062697000C8
:1027A0001C387000000770000FD66F0049A56F003D
:1027B000AE746F003C446F00F5136F00D8E36E00F9
:1027C000E4B36E0019846E0078546E0000256E002C
:1027D000B0F56D008AC66D008B976D00B5686D0011
:1027E000063A6D00800B6D0021DD6C00E9AE6C00D7
:1027F000D9806C00EF526C002C256C0090F76B00B8
:102800001ACA6B00CB9C6B00A16F6B009E426B00E1
:10281000C0156B0007E96A0074BC6A0006906A0084
:10282000BD636A0099376A00990B6A00BDDF6900D1
:1028300006B4690073886900045D6900B8316900F5
:10284000900669008BDB6800AAB06800EB85680021
:102850004F5B6800D6306800800668004CDC67007B
:102860003AB267004A8867007C5E6700D034670030
:10287000450B6700DBE1660093B866006C8F66006D
:1028800066666600803D6600BC14660017EC650055
:1028900093C36500309B6500EC726500C84A650013
:1028A000C3226500DFFA640019D3640074AB6400CE
:1028B000ED836400855C64003C356400110E6400A7
:1028C00006E7630018C063004999630099726300CA
:1028D000064C6300912563003AFF620000D9620054
:1028E000E4B26200E58C6200036762003F4162006F
:1028F000971B62000DF661009ED061004DAB610038
:1029000018866100FF606100033C610022176100CE
:102910005DF26000B5CD600028A96000B68460005B
:1029200060606000253C60000618600001F45F00F4
:1029300017D05F0049AC5F0095885F00FB645F00C3
:102940007D415F00181E5F00CEFA5E009ED75E00DC
:1029500088B45E008C915E00A96E5E00E14B5E0063
:1029600032295E009C065E0020E45D00BDC15D0072
:10297000739F5D00427D5D002B5B5D002C395D0027
:1029800045175D0078F55C00C3D35C0026B25C009F
:10299000A1905C00356F5C00E14D5C00A52C5C00F3
:1029A000810B5C0075EA5B0080C95B00A3A85B003B
:1029B000DD875B002F675B0098465B0018265B0095
:1029C000B0055B005EE55A0024C55A0000A55A0018
:1029D000F3845A00FC645A001C455A0053255A00DF
:1029E000A0055A0003E659007CC659000CA75900FF
:1029F000B18759006C6859003E495900242A590092
:102A0000210B590033EC58005ACD580097AE5800AE
:102A1000E98F580051715800CD5258005F3458006A
:102A200005165800C0F7570090D9570075BB5700DE
:102A30006E9D57007C7F57009F615700D54357001C
:102A4000202657007F085700F3EA56007ACD56003B
:102A500015B05600C4925600877556005E58560051
:102A6000483B5600461E5600580156007CE455006F
:102A7000B4C7550000AB55005E8E5500D0715500AF
:102A800055555500ED385500971C5500550055001B
:102A900025E4540007C85400FDAB540005905400D1
:102AA0001F7454004C5854008B3C5400DC205400DC
:102AB00040055400B5E953003DCE5300D7B2530052
:102AC000829753003F7C53000E615300EF45530043
:102AD000E22A5300E60F5300FBF4520022DA5200C0
:102AE0005ABF5200A3A45200FE8952006A6F5200DE
:102AF000E7545200753A520014205200C4055200A7
:102B000085EB510056D1510038B751002B9D510033
:102B10002F83510043695100674F51009C3551008C
:102B2000E11B5100370251009CE8500012CF5000C9
:102B300098B550002E9C5000D48250008A695000F5
:102B400050505000253750000B1E5000000550001B
:102B500004EC4F0019D34F003DBA4F0070A14F0055
:102B6000B2884F0004704F0066574F00D63E4F00AA
:102B700056264F00E50D4F0083F54E0030DD4E0028
:102B8000ECC44E00B7AC4E0090944E00797C4E00E1
:102B900070644E00764C4E008B344E00AE1C4E00DE
:102BA000E0044E0020ED4D006FD54D00CCBD4D0032
:102BB00037A64D00B18E4D0039774D00CF5F4D00E7
:102BC00073484D0026314D00E6194D00B5024D0009
:102BD00091EB4C007BD44C0073BD4C0079A64C00AB
:102BE0008D8F4C00AE784C00DD614C00194B4C00D1
:102BF00064344C00BB1D4C0020074C0093F04B008C
:102C000012DA4B00A0C34B003AAD4B00E2964B00EA
:102C100097804B00586A4B0028544B00043E4B00F1
:102C2000ED274B00E3114B00E6FB4A00F6E54A00B6
:102C300012D04A003CBA4A0072A44A00B58E4A003B
:102C400004794A0060634A00C94D4A003E384A0090
:102C5000C0224A004E0D4A00E8F749008FE24900C1
:102C600042CD490002B84900CDA24900A58D4900D6
:102C70008978490079634900754E49007E394900D9
:102C800092244900B20F4900DEFA480016E64800D7
:102C900059D14800A9BC480004A848006B934800DB
:102CA000DE7E48005C6A4800E65548007B414800EB
:102CB0001C2D4800C81848008004480043F0470015
:102CC00011DC4700EBC74700D0B34700C19F470066
:102CD000BC8B4700C3774700D5634700F24F4700DE
:102CE0001A3C47004D2847008B144700D500470089
:102CF00029ED460087D94600F1C5460066B2460078
:102D0000E59E46006F8B460004784600A3644600AB
:102D10004E514600023E4600C22A46008B1746002E
:102D2000600446003FF1450028DE45001CCB45000D
:102D30001AB8450022A5450035924500527F45004E
:102D4000796C4500AA594500E64645002C344500FB
:102D50007C214500D60E45003AFC4400A8E9440019
:102D600020D74400A2C444002EB24400C39F4400B4
:102D7000638D44000D7B4400C06844007D564400D0
:102D80004444440014324400EE1F4400D20D440079
:102D9000C0FB4300B7E94300B7D74300C2C54300B7
:102DA000D5B34300F2A1430019904300497E43008C
:102DB000826C4300C55A4300114943006637430003
:102DC000C52543002D1443009E02430018F1420024
:102DD0009BDF420028CE4200BDBC42005CAB4200FB
:102DE000049A4200B48842006E7742003166420085
:102DF000FC544200D1434200AE32420095214200D1
:102E0000841042007CFF41007CEE410086DD4100E1
:102E100098CC4100B2BB4100D6AA4100029A4100C1
:102E20003789410074784100BA6741000857410072
:102E30005F464100BF3541002725410097144100FE
:102E40001004410091F340001AE34000ACD240006E
:102E500046C24000E9B1400093A1400046914000C5
:102E600002814000C5704000906040006450400006
:102E7000404040002430400010204000041040003A
:102E8000FFFF3F0003F03F000FE03F0023D03F0073
:102E90003FC03F0063B03F008FA03F00C2903F00A3
:102EA000FE803F0041713F008C613F00DE513F00DA
:102EB00039423F009B323F0005233F0077133F001C
:102EC000F0033F0071F43E00F9E43E0089D53E0076
:102ED00021C63E00C0B63E0067A73E0015983E00E2
:102EE000CB883E0088793E004D6A3E00195B3E006B
:102EF000EC4B3E00C73C3E00A92D3E00931E3E0019
:102F0000830F3E007C003E007BF13D0082E23D00ED
:102F10008FD33D00A5C43D00C1B53D00E4A63D00F2
:102F20000F983D0041893D00797A3D00B96B3D0025
:102F3000005D3D004F4E3D00A43F3D0000313D008F
:102F400063223D00CD133D003E053D00B6F63C003A
:102F500035E83C00BBD93C0047CB3C00DBBC3C0027
:102F600075AE3C0016A03C00BE913C006D833C0059
:102F700022753C00DF663C00A2583C006B4A3C00D6
:102F80003C3C3C00132E3C00F01F3C00D5113C00A3
:102F9000C0033C00B1F53B00A9E73B00A8D93B00CA
:102FA000ADCB3B00B9BD3B00CBAF3B00E4A13B0048
:102FB00003943B0029863B0055783B00886A3B0020
:102FC000C05C3B00004F3B0045413B0091333B0060
:102FD000E4253B003C183B009B0A3B0001FD3A0006
:102FE0006CEF3A00DEE13A0056D43A00D4C63A001B
:102FF00059B93A00E3AB3A00749E3A000B913A009B
:10300000A8833A004B763A00F4683A00A35B3A0092
:10301000594E3A0014413A00D6333A009D263A0000
:103020006B193A003E0C3A0018FF3900F7F13900ED
:10303000DCE43900C7D73900B9CA3900B0BD39005E
:10304000ADB03900AFA33900B8963900C689390050
:10305000DB7C3900F56F3900156339003A563900C9
:1030600066493900973C3900CD2F39000A233900D1
:103070004C16390094093900E2FC380035F038006C
:103080008EE33800ECD6380050CA3800BABD38009C
:1030900029B138009EA4380018983800988B380061
:1030A0001E7F3800A872380039663800CF593800C2
:1030B0006A4D38000B413800B13438005D283800C3
:1030C0000E1C3800C40F38008003380041F7370069
:1030D00007EB3700D3DE3700A4D237007BC63700BA
:1030E00057BA370038AE37001EA2370009963700AE
:1030F000FA893700F07D3700EC713700EC65370056
:10310000F2593700FC4D37000C42370022363700A9
:103110003C2A37005B1E370080123700A9063700B3
:10312000D8FA36000CEF360045E3360082D7360079
:10313000C5CB36000DC036005AB43600ACA83600F8
:10314000039D36005F913600C0853600257A360033
:10315000906E36000063360074573600EE4B360032
:103160006C403600EF34360077293600041E3600F6
:10317000961236002C073600C8FB350068F0350083
:103180000DE53500B7D9350065CE350018C33500DB
:10319000D0B735008DAC35004FA135001596350000
:1031A000E08A3500AF7F3500837435005C693500F7
:1031B0003A5E35001C53350003483500EE3C3500BF
:1031C000DE313500D3263500CC1B3500CA10350062
:1031D000CC053500D3FA3400DEEF3400EEE43400E1
:1031E00003DA34001CCF340039C434005BB9340036
:1031F00082AE3400ACA33400DC983400108E34006E
:103200004883340084783400C56D34000B63340087
:1032100055583400A34D3400F54234004C38340086
:10322000A72D3400072334006B183400D30D34006D
:1032300040033400B1F8330026EE33009FE333003F
:103240001DD933009FCE330025C43300AFB93300FE
:103250003EAF3300D0A43300689A330003903300AC
:10326000A2853300467B3300ED703300996633004E
:10327000495C3300FD513300B6473300723D3300E3
:1032800033333300F7283300C01E33008D1433006E
:103290005E0A3300330033000BF63200E8EB3200F5
:1032A000C9E13200AED7320098CD320085C332007A
:1032B00076B932006BAF320064A53200619B3200F8
:1032C00061913200668732006F7D32007C7332007C
:1032D0008C693200A15F3200BA553200D64B320001
:1032E000F64132001A383200422E32006E2432008B
:1032F0009E1A3200D11032000807320044FD31001E
:1033000083F33100C5E931000CE0310056D63100BD
:10331000A4CC3100F6C231004CB93100A5AF310068
:1033200003A63100639C3100C8923100308931001E
:103330009D7F31000C763100806C3100F7623100E6
:1033400072593100F04F310072463100F83C3100C3
:10335000813331000E2A31009F20310033173100B4
:10336000CB0D31006704310006FB3000A9F13000BD
:103370004FE83000F9DE3000A6D5300057CC3000E1
:103380000CC33000C4B930007FB030003EA730001D
:10339000019E3000C7943000918B30005E82300077
:1033A0002E79300003703000DA663000B55D3000F1
:1033B00094543000754B30005B423000443930008B
:1033C000303030001F273000121E30000915300049
:1033D000030C30000003300000FA2F0004F12F002E
:1033E0000BE82F0016DF2F0024D62F0035CD2F003D
:1033F0004AC42F0062BB2F007DB22F009CA92F0072
:10340000BEA02F00E3972F000C8F2F0038862F00CF
:10341000677D2F0099742F00CF6B2F0007632F005B
:10342000445A2F0083512F00C6482F000B402F0015
:1034300054372F00A12E2F00F0252F00431D2F0001
:1034400099142F00F20B2F004E032F00ADFA2E001F
:1034500010F22E0075E92E00DEE02E004AD82E0074
:10346000B9CF2E002CC72E00A1BE2E0019B62E00FB
:1034700095AD2E0014A52E00969C2E001A942E00B9
:10348000A28B2E002D832E00BC7A2E004D722E00B2
:10349000E1692E0078612E0013592E00B0502E00E5
:1034A00050482E00F43F2E009A372E00442F2E0055
:1034B000F0262E00A01E2E0052162E00080E2E0002
:1034C000C0052E007CFD2D003AF52D00FBEC2D00F3
:1034D000C0E42D0087DC2D0051D42D001ECC2D0022
:1034E000EEC32D00C1BB2D0097B32D0070AB2D0096
:1034F0004CA32D002A9B2D000C932D00F08A2D004B
:10350000D8822D00C27A2D00AF722D009F6A2D0047
:1035100092622D00875A2D0080522D007B4A2D008B
:1035200079422D007A3A2D007E322D00852A2D0019
:103530008E222D009A1A2D00A9122D00BB0A2D00F3
:10354000D0022D00E7FA2C0001F32C001EEB2C001A
:103550003EE32C0060DB2C0086D32C00AECB2C008D
:10356000D8C32C0006BC2C0036B42C0069AC2C004F
:103570009FA42C00D79C2C0012952C00508D2C0061
:1035800090852C00D37D2C0019762C00626E2C00C7
:10359000AD662C00FB5E2C004B572C009F4F2C007F
:1035A000F4472C004D402C00A8382C0006312C008C
:1035B00066292C00C9212C002F1A2C0097122C00F0
:1035C000020B2C0070032C00E0FB2B0053F42B00AB
:1035D000C8EC2B0040E52B00BADD2B0037D62B00C2
:1035E000B7CE2B0039C72B00BEBF2B0045B82B0030
:1035F000CFB02B005BA92B00EAA12B007C9A2B00FB
:1036000010932B00A68B2B003F842B00DB7C2B0020
:1036100079752B001A6E2B00BD662B00625F2B00A4
:103620000A582B00B5502B0062492B0011422B0089
:10363000C33A2B0078332B002F2C2B00E8242B00CF
:10364000A41D2B0062162B00230F2B00E6072B0076
:10365000AC002B0073F92A003EF22A000BEB2A0083
:10366000DAE32A00ACDC2A0080D52A0056CE2A00F4
:103670002FC72A000AC02A00E8B82A00C8B12A00C9
:10368000AAAA2A008FA32A00769C2A005F952A0006
:103690004B8E2A0039872A002A802A001D792A00A9
:1036A00012722A000A6B2A0003642A00005D2A00B5
:1036B000FE552A00FF4E2A0002482A0008412A002F
:1036C0000F3A2A0019332A00262C2A0034252A0012
:1036D000451E2A0058172A006E102A0086092A0063
:1036E000A0022A00BCFB2900DAF42900FBED290026
:1036F0001EE7290044E029006BD9290095D2290052
:10370000C1CB2900EFC429001FBE290052B72900F0
:1037100087B02900BEA92900F7A22900339C2900FF
:1037200071952900B08E2900F3872900378129007F
:103730007D7A2900C6732900116D29005E66290073
:10374000AD5F2900FE58290051522900A74B2900DE
:10375000FF442900593E2900B537290013312900BB
:10376000732A2900D62329003A1D2900A116290011
:103770000A10290075092900E202290051FC2800DD
:10378000C2F5280035EF2800ABE8280022E2280027
:103790009CDB280018D5280095CE280015C82800E5
:1037A00097C128001BBB2800A1B4280029AE28001F
:1037B000B3A728003FA12800CE9A28005E942800D5
:1037C000F08D2800858728001B812800B37A280007
:1037D0004E742800EA6D28008967280029612800B6
:1037E000CC5A280070542800174E2800BF472800E4
:1037F0006A412800163B2800C5342800752E280091
:1038000028282800DC212800921B28004B152800BE
:10381000050F2800C10828008002280040FC27006E
:1038200002F62700C6EF27008CE9270054E32700A3
:103830001EDD2700EAD62700B8D0270087CA270058
:1038400059C427002DBE270002B82700D9B1270090
:10385000B3AB27008EA527006B9F27004A9927004E
:103860002B9327000E8D2700F2862700D980270092
:10387000C17A2700AC742700986E2700866827005D
:1038800076622700675C27005B56270051502700AF
:10389000484A2700414427003C3E2700393827008A
:1038A00038322700382C27003B2627003F202700EE
:1038B000451A27004D142700570E270062082700DD
:1038C000700227007FFC260090F62600A3F0260059
:1038D000B7EA2600CEE42600E6DE260000D9260060
:1038E0001BD3260039CD260058C7260079C12600F3
:1038F0009CBB2600C1B52600E7AF260010AA260013
:1039000039A42600659E260093982600C2922600C0
:10391000F38C2600268726005A812600907B2600FD
:10392000C8752600027026003D6A26007A642600CB
:10393000B95E2600FA5826003C532600804D26002A
:10394000C64726000E422600573C2600A236260017
:10395000EE3026003C2B26008C252600DE1F26009C
:10396000321A260087142600DD0E260036092600AE
:1039700090032600ECFD250049F82500A8F225005B
:1039800009ED25006BE72500D0E1250035DC250099
:103990009DD6250006D1250071CB2500DDC525006B
:1039A0004BC02500BBBA25002CB525009FAF2500D4
:1039B00014AA25008AA42500029F25007B992500D2
:1039C000F6932500738E2500F1882500718325006C
:1039D000F37D250076782500FB722500816D25009A
:1039E00009682500926225001E5D2500AA57250062
:1039F00039522500C94C25005A472500ED412500C4
:103A0000823C250018372500B0312500492C2500BF
:103A1000E4262500812125001F1C2500BE16250057
:103A200060112500020C2500A70625004D01250088
:103A3000F4FB24009DF6240047F12400F3EB24005E
:103A4000A1E6240050E1240001DC2400B3D62400C8
:103A500066D124001CCC2400D2C624008BC12400D3
:103A600044BC240000B72400BCB124007BAC24007B
:103A70003AA72400FCA12400BF9C240083972400C3
:103A800049922400108D2400D9872400A3822400A9
:103A90006F7D24003C7824000B732400DB6D240030
:103AA000AC68240080632400545E24002A5924005A
:103AB00002542400DB4E2400B54924009144240024
:103AC0006F3F24004D3A24002E3524000F3024008F
:103AD000F32A2400D7252400BD202400A51B2400A0
:103AE0008E16240078112400640C24005107240051
:103AF0004002240030FD230021F8230014F32300AA
:103B000008EE2300FEE82300F5E32300EEDE2300A9
:103B1000E8D92300E3D42300E0CF2300DECA23004A
:103B2000DEC52300DFC02300E1BB2300E5B6230090
:103B3000EAB12300F1AC2300F9A7230002A323007C
:103B40000D9E23001999230026942300358F23000E
:103B5000458A2300578523006A8023007E7B23004B
:103B600094762300AB712300C36C2300DD67230030
:103B7000F8622300155E23003359230052542300BA
:103B8000724F2300944A2300B7452300DC402300F2
:103B9000023C230029372300513223007B2D2300D0
:103BA000A7282300D3232300011F2300301A23005A
:103BB0006115230092102300C50B2300FA06230091
:103BC0003002230067FD22009FF82200D9F3220073
:103BD00014EF220050EA22008EE52200CCE0220001
:103BE0000DDC22004ED7220091D22200D5CD22003A
:103BF0001AC9220061C42200A9BF2200F2BA220021
:103C00003CB6220088B12200D5AC220023A82200B5
:103C100073A32200C49E2200169A220069952200F6
:103C2000BE902200138C22006B872200C3822200E8
:103C30001D7E220077792200D47422003170220088
:103C4000906B2200F066220051622200B35D2200D8
:103C5000175922007B542200E14F2200494B2200D9
:103C6000B14622001B422200863D2200F23822008B
:103C700060342200CE2F22003E2B2200AF262200ED
:103C800022222200951D22000A19220080142200FF
:103C9000F70F22006F0B2200E906220064022200C7
:103CA000E0FD21005DF92100DBF421005BF0210043
:103CB000DBEB21005DE72100E1E2210065DE210070
:103CC000EAD9210071D52100F9D0210082CC210050
:103CD0000CC8210098C3210024BF2100B2BA2100E2
:103CE00041B62100D1B1210062AD2100F5A821002B
:103CF00088A421001DA02100B39B21004A97210028
:103D0000E29221007C8E2100168A2100B2852100DA
:103D10004F812100ED7C21008C7821002C74210042
:103D2000CD6F2100706B210014672100B862210063
:103D30005E5E2100055A2100AE5521005751210039
:103D4000024D2100AD4821005A44210008402100C5
:103D5000B73B21006737210018332100CA2E21000C
:103D60007E2A210033262100E82121009F1D210009
:103D70005719210010152100CA102100850C2100BF
:103D800042082100FF032100BEFF20007DFB200030
:103D90003EF7200000F32000C3EE200087EA200059
:103DA0004CE6200012E22000D9DD2000A1D920003D
:103DB0006BD5200035D1200001CD2000CDC82000DA
:103DC0009BC420006AC020003ABC20000BB8200031
:103DD000DDB32000B0AF200084AB200059A7200045
:103DE0002FA32000079F2000DF9A2000B996200013
:103DF000939220006F8E20004B8A2000298620009D
:103E000008822000E77D2000C8792000AA752000E4
:103E10008D712000716D2000566920003C652000E6
:103E2000236120000B5D2000F4582000DE542000A8
:103E3000C9502000B64C2000A34820009144200027
:103E400081402000713C2000623820005534200061
:103E5000483020003C2C200032282000282420005C
:103E600020202000181C2000121820000C14200014
:103E700008102000040C200002082000000420008C
:103E8000FFFF1F0000FC1F0001F81F0004F41F00CB
:103E900007F01F000CEC1F0011E81F0018E41F00C2
:103EA0001FE01F0028DC1F0031D81F003CD41F007A
:103EB00047D01F0053CC1F0061C81F006FC41F00F4
:103EC0007FC01F008FBC1F00A0B81F00B2B41F002E
:103ED000C6B01F00DAAC1F00EFA81F0005A51F0029
:103EE0001CA11F00349D1F004D991F0067951F00E6
:103EF00082911F009E8D1F00BB891F00D9851F0066
:103F0000F8811F00177E1F00387A1F005A761F00A5
:103F10007C721F00A06E1F00C46A1F00EA661F00AB
:103F200010631F00385F1F00605B1F0089571F0070
:103F3000B3531F00DE4F1F000A4C1F0037481F00FD
:103F400065441F0094401F00C43C1F00F4381F004C
:103F500026351F0059311F008C2D1F00C0291F005E
:103F6000F6251F002C221F00631E1F009B1A1F0036
:103F7000D4161F000E131F00490F1F00850B1F00D2
:103F8000C1071F00FF031F003E001F007DFC1E0035
:103F9000BDF81E00FEF41E0041F11E0084ED1E005F
:103FA000C7E91E000CE61E0052E21E0099DE1E004C
:103FB000E0DA1E0029D71E0072D31E00BCCF1E00FF
:103FC00007CC1E0053C81E00A0C41E00EEC01E0079
:103FD0003CBD1E008CB91E00DCB51E002EB21E00BA
:103FE00080AE1E00D3AA1E0027A71E007CA31E00C1
:103FF000D29F1E00289C1E0080981E00D8941E0090
:1040000031911E008B8D1E00E6891E0042861E0027
:104010009F821E00FC7E1E005B7B1E00BA771E0086
:104020001A741E007B701E00DD6C1E0040691E00AD
:10403000A3651E0008621E006D5E1E00D35A1E009E
:104040003A571E00A2531E000B501E00744C1E0057
:10405000DF481E004A451E00B6411E00233E1E00DA
:10406000913A1E0000371E006F331E00DF2F1E0026
:10407000512C1E00C3281E0035251E00A9211E003C
:104080001E1E1E00931A1E0009171E0080131E001C
:10409000F80F1E00710C1E00EA081E0064051E00C9
:1040A000E0011E005CFE1D00D8FA1D0056F71D0041
:1040B000D4F31D0054F01D00D4EC1D0055E91D0083
:1040C000D6E51D0059E21D00DCDE1D0060DB1D0091
:1040D000E5D71D006BD41D00F2D01D0079CD1D0069
:1040E00001CA1D008AC61D0014C31D009FBF1D000C
:1040F0002ABC1D00B6B81D0044B51D00D1B11D007D
:1041000060AE1D00EFAA1D0080A71D0011A41D00B8
:10411000A2A01D00359D1D00C8991D005D961D00C3
:10412000F2921D00878F1D001E8C1D00B5881D009A
:104130004D851D00E6811D00807E1D001B7B1D003E
:10414000B6771D0052741D00EF701D008C6D1D00B0
:104150002B6A1D00CA661D006A631D000B601D00EE
:10416000AC5C1D004E591D00F1551D0095521D00FF
:104170003A4F1D00DF4B1D0085481D002C451D00DA
:10418000D4411D007C3E1D00253B1D00CF371D0086
:104190007A341D0025311D00D12D1D007E2A1D0001
:1041A0002C271D00DB231D008A201D003A1D1D0049
:1041B000EB191D009C161D004E131D0001101D0063
:1041C000B50C1D006A091D001F061D00D5021D004B
:1041D0008CFF1C0043FC1C00FBF81C00B4F51C0009
:1041E0006EF21C0028EF1C00E3EB1C009FE81C0093
:1041F0005CE51C0019E21C00D8DE1C0096DB1C00EC
:1042000056D81C0016D51C00D7D11C0099CE1C0016
:104210005CCB1C001FC81C00E3C41C00A8C11C0010
:104220006DBE1C0033BB1C00FAB71C00C2B41C00DE
:104230008AB11C0053AE1C001DAB1C00E7A71C007C
:10424000B3A41C007EA11C004B9E1C00189B1C00EC
:10425000E6971C00B5941C0085911C00558E1C002F
:10426000268B1C00F7871C00CA841C009D811C0043
:10427000717E1C00457B1C001A781C00F0741C0029
:10428000C7711C009E6E1C00766B1C004F681C00E2
:1042900028651C0002621C00DD5E1C00B85B1C006F
:1042A00094581C0071551C004F521C002D4F1C00CF
:1042B0000C4C1C00EC481C00CC451C00AD421C0002
:1042C0008F3F1C00713C1C0054391C0038361C0008
:1042D0001C331C0001301C00E72C1C00CE291C00E4
:1042E000B5261C009D231C0085201C006E1D1C0093
:1042F000581A1C0043171C002E141C001A111C0015
:10430000070E1C00F40A1C00E2071C00D0041C006D
:10431000C0011C00B0FE1B00A0FB1B0091F81B009D
:1043200083F51B0076F21B0069EF1B005DEC1B00A0
:1043300052E91B0047E61B003DE31B0034E01B0075
:104340002BDD1B0023DA1B001CD71B0015D41B0020
:104350000FD11B0009CE1B0004CB1B0000C81B00A3
:10436000FDC41B00FAC11B00F8BE1B00F6BB1B00FE
:10437000F6B81B00F5B51B00F6B21B00F7AF1B002B
:10438000F9AC1B00FBA91B00FEA61B0002A41B002E
:1043900006A11B000B9E1B00119B1B0017981B0006
:1043A0001E951B0025921B002D8F1B00368C1B00B9
:1043B00040891B004A861B0054831B0060801B0041
:1043C0006C7D1B00787A1B0086771B0094741B00A1
:1043D000A2711B00B16E1B00C16B1B00D1681B00DA
:1043E000E2651B00F4621B0006601B00195D1B00E8
:1043F0002D5A1B0041571B0056541B006B511B00CC
:10440000814E1B00984B1B00AF481B00C7451B008B
:10441000E0421B00F93F1B00123D1B002D3A1B0020
:1044200048371B0063341B0080311B009C2E1B008F
:10443000BA2B1B00D8281B00F7251B0016231B00D6
:1044400036201B00561D1B00771A1B0099171B00F6
:10445000BB141B00DE111B00020F1B00260C1B00EF
:104460004B091B0070061B0096031B00BD001B00C0
:10447000E4FD1A000BFB1A0034F81A005DF51A006F
:1044800086F21A00B0EF1A00DBEC1A0006EA1A00F6
:1044900032E71A005FE41A008CE11A00BADE1A0053
:1044A000E8DB1A0017D91A0046D61A0076D31A008C
:1044B000A7D01A00D8CD1A000ACB1A003DC81A009E
:1044C00070C51A00A3C21A00D7BF1A000CBD1A008B
:1044D00041BA1A0077B71A00AEB41A00E5B11A0053
:1044E0001DAF1A0055AC1A008EA91A00C7A61A00F3
:1044F00001A41A003CA11A00779E1A00B39B1A006F
:10450000EF981A002C961A0069931A00A7901A00C7
:10451000E68D1A00258B1A0065881A00A5851A00F9
:10452000E6821A0027801A00697D1A00AC7A1A0008
:10453000EF771A0033751A0077721A00BC6F1A00F1
:10454000016D1A00476A1A008E671A00D5641A00B6
:104550001C621A00655F1A00AD5C1A00F7591A0058
:1045600041571A008B541A00D6511A00224F1A00D4
:104570006E4C1A00BA491A0008471A0055441A002E
:10458000A4411A00F23E1A00423C1A0092391A0065
:10459000E2361A0033341A0085311A00D72E1A0079
:1045A0002A2C1A007D291A00D1261A0025241A0067
:1045B0007A211A00D01E1A00261C1A007C191A0033
:1045C000D3161A002B141A0083111A00DC0E1A00DD
:1045D000350C1A008F091A00E9061A0044041A0063
:1045E000A0011A00FCFE190058FC1900B5F91900C9
:1045F00013F7190071F41900CFF119002EEF19000B
:104600008EEC1900EEE919004FE71900B0E419002B
:1046100012E2190074DF1900D7DC19003BDA190027
:104620009FD7190003D5190068D21900CDCF190002
:1046300034CD19009ACA190001C8190069C51900BA
:10464000D1C2190039C01900A3BD19000CBB190053
:1046500076B81900E1B519004CB31900B8B01900CB
:1046600024AE190091AB1900FEA819006CA6190020
:10467000DBA3190049A11900B99E1900299C190052
:10468000999919000A9719007B941900ED91190066
:10469000608F1900D38C1900468A1900BA87190057
:1046A0002F851900A4821900198019008F7D190027
:1046B000057B19007C781900F47519006C731900DA
:1046C000E47019005D6E1900D76B1900516919006B
:1046D000CC66190047641900C26119003E5F1900D9
:1046E000BB5C1900385A1900B55719003355190029
:1046F000B252190031501900B04D1900304B190059
:10470000B048190031461900B3431900354119006A
:10471000B73E19003A3C1900BE391900423719005A
:10472000C63419004B321900D02F1900562D19002C
:10473000DD2A190063281900EB25190072231900DE
:10474000FB201900841E19000D1C1900971919006F
:1047500021171900AC14190037121900C20F1900E3
:104760004F0D1900DB0A190068081900F605190039
:104770008403190013011900A2FE180031FC18006F
:10478000C1F9180052F71800E2F4180074F218008A
:1047900006F0180098ED18002BEB1800BEE8180082
:1047A00052E61800E6E318007BE1180010DF18005D
:1047B000A6DC18003CDA1800D2D718006AD5180019
:1047C00001D3180099D0180031CE1800CACB1800B8
:1047D00064C91800FEC6180098C4180033C2180037
:1047E000CEBF18006ABD180006BB1800A3B8180099
:1047F00040B61800DDB318007BB118001AAF1800DE
:10480000B9AC180058AA1800F8A7180098A5180005
:1048100039A31800DAA018007C9E18001E9C18000E
:10482000C09918006397180007951800AB921800FC
:104830004F901800F48D1800998B18003F891800CC
:10484000E58618008C84180033821800DB7F18007E
:10485000837D18002B7B1800D47818007D76180013
:1048600027741800D17118007C6F1800276D18008C
:10487000D36A18007F6818002B661800D8631800E8
:1048800086611800335F1800E25C1800905A180027
:104890003F581800EF5518009F5318004F5118004B
:1048A000004F1800B24C1800634A18001648180050
:1048B000C84518007B4318002F411800E33E18003C
:1048C000973C18004C3A180001381800B73518000A
:1048D0006D33180023311800DA2E1800922C1800BE
:1048E0004A2A180002281800BA2518007423180054
:1048F0002D211800E71E1800A21C18005C1A1800D1
:1049000018181800D31518008F1318004C11180030
:10491000090F1800C60C1800840A18004208180075
:1049200001061800C00318008001180040FF17009E
:1049300000FD1700C1FA170082F8170043F61700B0
:1049400005F41700C8F117008BEF17004EED1700A4
:1049500012EB1700D6E817009AE617005FE417007D
:1049600025E21700EBDF1700B1DD170077DB17003A
:104970003ED9170006D71700CED4170096D21700DD
:104980005FD0170028CE1700F1CB1700BBC9170066
:1049900086C7170050C517001CC31700E7C01700D3
:1049A000B3BE17007FBC17004CBA170019B8170028
:1049B000E7B51700B5B3170083B1170052AF170062
:1049C00022AD1700F1AA1700C1A8170092A6170080
:1049D00063A4170034A2170005A01700D79D170085
:1049E000AA9B17007D991700509717002495170070
:1049F000F8921700CC901700A18E1700768C170044
:104A00004C8A170022881700F9851700CF831700FA
:104A1000A78117007E7F1700567D17002F7B170098
:104A200008791700E1761700BA741700947217001E
:104A30006F7017004A6E1700256C1700006A170088
:104A4000DC671700B96517009663170073611700DC
:104A5000505F17002E5D17000C5B1700EB58170016
:104A6000CA561700AA5417008A5217006A50170036
:104A70004B4E17002C4C17000D4A1700EF4717003C
:104A8000D1451700B4431700964117007A3F17002D
:104A90005E3D1700423B1700263917000B37170001
:104AA000F0341700D6321700BC301700A22E1700C2
:104AB000892C1700702A1700582817004026170065
:104AC0002824170011221700FA1F1700E31D1700F2
:104AD000CD1B1700B7191700A21717008D15170067
:104AE0007813170064111700500F17003C0D1700C2
:104AF000290B17001609170004071700F204170006
:104B0000E0021700CF001700BEFE1600ADFC160035
:104B10009DFA16008DF816007DF616006EF416004C
:104B200060F2160051F0160043EE160036EC160047
:104B300028EA16001BE816000FE6160003E416002C
:104B4000F7E11600EBDF1600E0DD1600D6DB1600FD
:104B5000CBD91600C1D71600B8D51600AFD31600B2
:104B6000A6D116009DCF160095CD16008DCB160050
:104B700086C916007FC7160078C5160072C31600D6
:104B80006CC1160066BF160061BD16005CBB160046
:104B900057B9160053B716004FB516004CB31600A0
:104BA00049B1160046AF160043AD160041AB1600E2
:104BB00040A916003EA716003DA516003DA316000D
:104BC0003CA116003C9F16003D9D16003E9B160022
:104BD0003F99160040971600429516004493160020
:104BE000479116004A8F16004D8D1600508B160007
:104BF00054891600598716005D85160062831600D9
:104C0000688116006D7F1600737D16007A7B160092
:104C100080791600877716008F7516009773160037
:104C20009F711600A76F1600B06D1600B96B1600C5
:104C3000C3691600CC671600D7651600E16316003D
:104C4000EC611600F75F1600035E16000F5C16009D
:104C50001B5A1600275816003456160041541600E9
:104C60004F5216005D5016006B4E16007A4C16001F
:104C7000894A160098481600A8461600B84416003F
:104C8000C8421600D8401600E93E1600FB3C16004C
:104C90000C3B16001E39160031371600433516003E
:104CA000563316006A3116007D2F1600912D16001E
:104CB000A52B1600BA291600CF271600E4251600EA
:104CC000FA23160010221600262016003D1E16009C
:104CD000541C16006B1A1600831816009B1616003B
:104CE000B3141600CC121600E4101600FE0E1600C7
:104CF000170D1600310B16004B091600660716003B
:104D0000810516009C031600B8011600D4FF15009B
:104D1000F0FD15000CFC150029FA150046F81500E9
:104D200064F6150082F41500A0F21500BEF015001F
:104D3000DDEE1500FCEC15001BEB15003BE9150042
:104D40005BE715007CE515009CE31500BDE115004F
:104D5000DFDF150000DE150022DC150045DA150046
:104D600067D815008AD61500ADD41500D1D215002C
:104D7000F5D0150019CF15003ECD150063CB1500F9
:104D800088C91500ADC71500D3C51500F9C31500B6
:104D90001FC2150046C015006DBE150095BC15005C
:104DA000BCBA1500E4B815000DB7150035B51500EF
:104DB0005EB3150087B11500B1AF1500DBAD15006E
:104DC00005AC15002FAA15005AA8150085A61500D8
:104DD000B1A41500DCA2150008A11500359F15002F
:104DE000619D15008E9B1500BC991500E997150073
:104DF000179615004594150074921500A3901500A0
:104E0000D28E1500018D1500318B150061891500BA
:104E100091871500C2851500F383150024821500C3
:104E200056801500877E1500B97C1500EC7A1500B8
:104E30001F7915005277150085751500B973150097
:104E4000ED71150021701500566E15008A6C150065
:104E5000C06A1500F56815002B671500616515001F
:104E600097631500CE611500056015003C5E1500C6
:104E7000745C1500AC5A1500E45815001C57150059
:104E8000555515008E531500C751150001501500DA
:104E90003B4E1500754C1500AF4A1500EA48150049
:104EA00025471500614515009C431500D8411500A4
:104EB00015401500513E15008E3C1500CB3A1500EB
:104EC000093915004737150085351500C33315001E
:104ED0000132150040301500802E1500BF2C150042
:104EE000FF2A15003F2915007F271500C025150052
:104EF000012415004222150084201500C51E15004E
:104F0000071D15004A1B15008C191500CF17150039
:104F100013161500561415009A121500DE10150010
:104F2000220F1500670D1500AC0B1500F1091500D7
:104F3000370815007D061500C30415000903150088
:104F40005001150097FF1400DEFD140025FC14002D
:104F50006DFA1400B5F81400FDF6140046F51400BF
:104F60008FF31400D8F1140022F014006BEE14003B
:104F7000B5EC140000EB14004AE9140095E71400A6
:104F8000E0E514002CE4140077E21400C3E0140000
:104F90000FDF14005CDD1400A9DB1400F6D9140047
:104FA00043D8140091D61400DFD414002DD314007C
:104FB0007BD11400CACF140019CE140068CC1400A1
:104FC000B8CA140008C9140058C71400A8C51400B2
:104FD000F9C314004AC214009BC01400EDBE1400B3
:104FE0003EBD140090BB1400E3B9140035B81400A2
:104FF00088B61400DBB414002FB3140082B114007F
:10500000D6AF14002AAE14007FAC1400D4AA14004A
:1050100028A914007EA71400D3A5140029A4140005
:105020007FA21400D6A014002C9F1400839D1400AE
:10503000DA9B1400329A140089981400E196140047
:105040003995140092931400EB91140044901400CD
:105050009D8E1400F68C1400508B1400AA89140045
:10506000058814005F861400BA84140015831400A8
:1050700071811400CC7F1400287E1400847C1400FD
:10508000E17A14003D7914009A771400F875140041
:1050900055741400B3721400117114006F6F140072
:1050A000CE6D14002C6C14008C6A1400EB68140094
:1050B0004A671400AA6514000A6414006B621400A5
:1050C000CB6014002C5F14008D5D1400EF5B1400A6
:1050D000505A1400B2581400145714007755140095
:1050E000D95314003C5214009F501400034F140075
:1050F000674D1400CB4B14002F4A14009348140042
:10510000F84614005D451400C24314002842140000
:105110008D401400F33E1400593D1400C03B1400B0
:10512000273A14008E381400F53614005C3514004C
:10513000C43314002C32140094301400FD2E1400DB
:10514000662D1400CF2B1400382A1400A128140057
:105150000B27140075251400DF2314004A221400C5
:10516000B5201400201F14008B1D1400F61B140022
:10517000621A1400CE1814003A171400A715140070
:105180001414140081121400EE1014005B0F1400AC
:10519000C90D1400370C1400A50A140014091400DA
:1051A00082071400F105140060041400D0021400FA
:1051B00040011400B0FF130020FE130090FC130008
:1051C00001FB130072F91300E3F7130054F6130008
:1051D000C6F4130038F31300AAF113001CF01300F7
:1051E0008FEE130002ED130075EB1300E8E91300D6
:1051F0005CE81300CFE6130043E51300B8E31300A7
:105200002CE21300A1E0130016DF13008BDD130066
:1052100001DC130076DA1300ECD8130063D7130017
:10522000D9D5130050D41300C7D213003ED11300B8
:10523000B5CF13002DCE1300A5CC13001DCB13004A
:1052400095C913000EC8130087C6130000C51300CC
:1052500079C31300F2C113006CC01300E6BE130043
:1052600060BD1300DBBB130056BA1300D0B81300A7
:105270004CB71300C7B5130043B41300BEB21300FC
:105280003BB11300B7AF130033AE1300B0AC130043
:105290002DAB1300ABA9130028A81300A6A613007A
:1052A00024A51300A2A3130020A213009FA01300A3
:1052B0001E9F13009D9D13001C9C13009C9A1300BD
:1052C0001C9913009C9713001C9613009C941300C8
:1052D0001D9313009E9113001F901300A18E1300C5
:1052E000228D1300A48B1300268A1300A9881300B3
:1052F0002B871300AE85130031841300B482130092
:1053000038811300BB7F13003F7E1300C37C130062
:10531000487B1300CC79130051781300D676130024
:105320005B751300E173130067721300EC701300D8
:10533000736F1300F96D1300806C1300066B13007C
:105340008D691300156813009C6613002465130013
:10535000AC63130034621300BC601300455F13009C
:10536000CE5D1300575C1300E05A13006A59130016
:10537000F35713007D561300085513009253130082
:105380001C521300A7501300324F1300BE4D1300E0
:10539000494C1300D54A130061491300ED4713002F
:1053A000794613000645130093431300204213006F
:1053B000AD4013003A3F1300C83D1300563C1300A4
:1053C000E43A130072391300013813008F361300CA
:1053D0001E351300AE3313003D321300CD301300E1
:1053E0005C2F1300EC2D13007D2C13000D2B1300EC
:1053F0009E2913002F281300C026130051251300E7
:10540000E32313007522130007211300991F1300D3
:105410002B1E1300BE1C1300511B1300E4191300B4
:10542000771813000A1713009E1513003214130087
:10543000C61213005A111300EF0F1300840E13004D
:10544000190D1300AE0B1300430A1300D908130003
:105450006E071300040613009B04130031031300AE
:10546000C80113005F001300F6FE12008DFD12004C
:1054700024FC1200BCFA120054F91200ECF71200DE
:1054800084F612001DF51200B5F312004EF2120060
:10549000E8F0120081EF12001AEE1200B4EC1200D4
:1054A0004EEB1200E8E9120083E812001DE712003B
:1054B000B8E5120053E41200EEE212008AE1120095
:1054C00025E01200C1DE12005DDD1200F9DB1200E2
:1054D00096DA120032D91200CFD712006CD6120021
:1054E0000AD51200A7D3120045D21200E2D0120052
:1054F00081CF12001FCE1200BDCC12005CCB120077
:10550000FBC912009AC8120039C71200D9C512008F
:1055100078C4120018C31200B8C1120059C012009A
:10552000F9BE12009ABD12003BBC1200DCBA120098
:105530007DB912001FB81200C0B6120062B5120089
:1055400004B41200A6B2120049B11200ECAF12006E
:105550008FAE120032AD1200D5AB120078AA120045
:105560001CA91200C0A7120064A6120008A5120010
:10557000ADA3120051A21200F6A012009B9F1200D0
:10558000419E1200E69C12008C9B1200329A12007F
:10559000D89812007E97120024961200CB94120025
:1055A0007293120019921200C0901200688F1200BC
:1055B0000F8E1200B78C12005F8B1200078A120048
:1055C000B08812005887120001861200AA841200C7
:1055D00053831200FC811200A6801200507F12003B
:1055E000FA7D1200A47C12004E7B1200F9791200A1
:1055F000A37812004E771200F9751200A5741200FC
:1056000050731200FC711200A8701200546F120047
:10561000006E1200AD6C1200596B1200066A120087
:10562000B3681200606712000E661200BB641200BD
:105630006963120017621200C5601200735F1200E6
:10564000225E1200D15C1200805B12002F5A120001
:10565000DE5812008D5712003D561200ED54120014
:105660009D5312004D521200FE501200AE4F120018
:105670005F4E1200104D1200C14B1200734A12000F
:1056800024491200D6471200884612003A451200FB
:10569000EC4312009F4212005141120004401200DC
:1056A000B73E12006A3D12001E3C1200D13A1200B1
:1056B0008539120039381200ED361200A13512007A
:1056C000563412000B331200C03112007530120034
:1056D0002A2F1200DF2D1200952C12004B2B1200E6
:1056E000012A1200B72812006D271200242612008A
:1056F000DA24120091231200482212000021120025
:10570000B71F12006F1E1200261D1200DE1B1200B2
:10571000971A12004F19120007181200C016120033
:105720007915120032141200EB121200A5111200AA
:105730005E101200180F1200D20D12008C0C120015
:10574000470B1200010A1200BC0812007707120072
:1057500032061200ED041200A803120064021200C7
:1057600020011200DCFF110098FE110054FD110011
:1057700010FC1100CDFA11008AF9110047F8110050
:1057800004F71100C1F511007FF411003DF3110081
:10579000FAF11100B9F0110077EF110035EE1100A8
:1057A000F4EC1100B2EB110071EA110031E91100C3
:1057B000F0E71100AFE611006FE511002FE41100D2
:1057C000EFE21100AFE111006FE0110030DF1100D6
:1057D000F0DD1100B1DC110072DB110034DA1100D0
:1057E000F5D81100B6D7110078D611003AD51100BE
:1057F000FCD31100BED2110081D1110043D01100A1
:1058000006CF1100C9CD11008CCC110050CB110076
:1058100013CA1100D7C811009AC711005EC6110043
:1058200022C51100E7C31100ABC2110070C1110005
:1058300035C01100FABE1100BFBD110084BC1100BB
:105840004ABB11000FBA1100D5B811009BB7110067
:1058500061B6110028B51100EEB31100B5B2110008
:105860007CB1110043B011000AAF1100D2AD11009C
:1058700099AC110061AB110029AA1100F1A8110027
:10588000B9A7110081A611004AA5110013A41100A7
:10589000DBA21100A4A111006EA01100379F11001E
:1058A000019E1100CA9C1100949B11005E9A110088
:1058B00028991100F3971100BD96110088951100E9
:1058C000539411001E931100E9911100B59011003D
:1058D000808F11004C8E1100188D1100E48B110087
:1058E000B08A11007C8911004988110016871100C7
:1058F000E2851100B08411007D8311004A821100FD
:1059000018811100E57F1100B37E1100817D110027
:105910004F7C11001E7B1100EC791100BB78110047
:105920008A7711005976110028751100F77311005C
:10593000C77211009671110066701100366F110068
:10594000066E1100D66C1100A76B1100776A11006A
:105950004869110019681100EA661100BB65110061
:105960008D6411005E63110030621100026111004C
:10597000D45F1100A65E1100795D11004B5C11002F
:105980001E5B1100F1591100C45811009757110006
:105990006A5611003E55110011541100E5521100D4
:1059A000B95111008D501100624F1100364E110097
:1059B0000B4D1100DF4B1100B44A11008949110051
:1059C0005F4811003447110009461100DF441100FF
:1059D000B54311008B4211006141110038401100A4
:1059E0000E3F1100E53D1100BB3C1100923B110040
:1059F0006A3A11004139110018381100F0361100CF
:105A0000C83511009F341100783311005032110055
:105A10002831110001301100D92E1100B22D1100D2
:105A20008B2C1100642B11003D2A11001729110045
:105A3000F0271100CA261100A42511007E241100B0
:105A400058231100332211000D211100E81F11000D
:105A5000C31E11009E1D1100791C1100541B110062
:105A6000301A11000B191100E7171100C3161100AD
:105A70009F1511007B1411005713110034121100EF
:105A800011111100ED0F1100CA0E1100A70D110028
:105A9000850C1100620B1100400A11001D09110054
:105AA000FB071100D9061100B7051100960411007B
:105AB0007403110053021100320111001100110092
:105AC000F0FE1000CFFD1000AEFC10008EFB1000A9
