:1000000000000420C95E010021DE0000990000000C
:1000100023DE000025DE000027DE000000000000D7
:1000200000000000000000000000000029DE0000C9
:100030002BDE0000000000002DDE00002FDE00009F
:1000400031DE000033DE000035DE000037DE000068
:1000500039DE00003BDE00003DDE00003FDE000038
:10006000195C010041DE000043DE000045DE0000B7
:1000700047DE000049DE00004BDE00004DDE0000E0
:040080004FDE00004F
:10008400034C206804348047FBE70CF0A8FEFEE72D
:0400940044B90E005D
:1000980008490A68002AFED41EF0040F0CBFEFF3CB
:1000A8000880EFF3098042F000420A60816902315A
:0800B800816170472CED00E0AE
:1000C00021E0000000000000D564010067BE0A00C6
:0800D000000000000000000028
:1000D80091C30A0039C70A009EC30A00A7BE0A00D6
:1000E800B3C30A00C4C30A0052CB0100DDC30A002F
:0400F8004DC70A00E6
:1000FC0000000000FFFF00000000000000000000F6
:10010C0001000400000000001F2F0100000000008F
:10011C000200000001000000CD29010002000000D7
:10012C000200000001000000892B01000300000008
:10013C000200000001000000DF2B010004000000A1
:10014C000200010004000000000000000600000096
:10015C0002000200040000004F2C01000700000008
:10016C000200030005000000000000000800000071
:10017C000200020004000000000000000900000062
:10018C0002000100050000007D9C0100020000003F
:10019C000300000001000000CD2901000A0000004E
:1001AC000300000001000000892B01000B0000007F
:1001BC000300000001000000DF2B01000C00000018
:1001CC000300000004000000000000000E0000000E
:1001DC0003000100060000004F2D01000F0000007D
:1001EC0003000200040000000000000010000000EA
:1001FC0003000100050000007D9C01000A000000C6
:10020C000400008007000000312F010001000000F5
:10021C000100000001000000CD29010012000000C7
:10022C000100000001000000892B010013000000F8
:10023C000100000001000000DF2B01001400000091
:10024C000100000003000000000000001600000088
:10025C000100000007000000A52E0100170000009F
:10026C000100010005000000000000001800000063
:10027C000100020005000000000000001900000051
:10028C000100030004000000000000001A00000040
:10029C000100020005000000000000001B0000002F
:1002AC000100010005000000000000001C0000001F
:1002BC000100000003000000000000001D00000011
:1002CC0001000000070000007D9C010012000000EE
:1002DC000500008004000000312F01001F00000009
:1002EC000500018003000000432F01000100000005
:1002FC000600000001000000CD29010020000000D4
:10030C000600000001000000892B01002100000004
:10031C000600000001000000DF2B0100220000009D
:10032C000600000004000000C19E01002400000033
:10033C000600010004000000C19E01002500000021
:10034C0006000100000000007D9C01002000000060
:10035C000700008005000000312F010001000000A3
:10036C000700018005000000432F01000100000080
:10037C000800000001000000CD2901002800000049
:10038C000800000001000000892B0100290000007A
:10039C000800000001000000DF2B01002A00000013
:1003AC000800010008000000312C01002C000000A6
:1003BC00080001000C0000000D2D01002D000000B4
:1003CC0008000100000000007D9C010028000000D6
:1003DC000900008003000000312F01002F000000F5
:1003EC000900018004000000000000003000000043
:1003FC000900028004000000432F010031000000BE
:10040C000900038004000000432F010001000000DC
:10041C000A00020004000000CD2901003300000096
:10042C000A00030004000000CD2901003200000086
:10043C000A00020001000000892B010034000000BA
:10044C000A00020001000000DF2B01003500000053
:10045C000A00000004000000659D01003700000048
:10046C000A00010004000000659D01003800000036
:10047C000A000100000000007D9C01003200000019
:10048C000B00020008000000000000003A00000011
:10049C000B00010008000000000000003B00000001
:1004AC000B0000000800000000000000000000002D
:1004BC000C00008004000000000000003D00000063
:1004CC000C00010004000000000000003E000000D1
:1004DC000C00020004000000000000003F000000BF
:1004EC000C000300040000000000000000000000ED
:1004FC000D0000800400000000000000410000001E
:10050C000D0001800400000000000000400000000D
:10051C000D000280060000000000000043000000F7
:10052C000D000380060000000000000044000000E5
:10053C000D00048006000000000000000000000018
:10054C000E000080010000000000000045000000CB
:10055C000E000180080000008172010047000000BD
:10056C000E000280060000000000000048000000A1
:10057C000E000380040000000000000000000000DA
:10058C000F00008006000000000000004A00000080
:10059C000F00018006000000000000004B0000006E
:1005AC000F00008006000000000000004C0000005E
:1005BC000F00018006000000000000004D0000004C
:1005CC000F00028006000000000000004E0000003A
:1005DC000F00038006000000000000004F00000028
:1005EC000F00048006000000000000005000000016
:1005FC000F00058006000000000000005100000004
:10060C000F000680060000000000000052000000F1
:10061C000F000780060000000000000053000000DF
:10062C000F000880060000000000000054000000CD
:10063C000F00098006000000000000000000000010
:10064C0010000000FFFF0000000000000000000090
:10065C001000000004000000000000005700000023
:10066C001000010004000000000000005800000011
:10067C0010000200040000000000000059000000FF
:10068C0010000300040000000000000056000000F1
:10069C00100004000C0000000000000055000000D9
:1006AC001000058006000000000000005A00000049
:1006BC001000060004000000000000005D000000B7
:1006CC0010000600040000004572010055000000F7
:1006DC00100007000A000000000000005F0000008E
:1006EC00100008000A000000DDF3000060000000AC
:1006FC00100009000A0000002DF30000610000004A
:10070C0010000A000A000000000000006200000057
:10071C0010000B000A000000000000006300000045
:10072C0010000C000A000000000000006400000033
:10073C0010000D00FFFF0000000000000000000092
:10074C0010000E0005000000000000006600000014
:10075C0010000F00050000001BF3000067000000F4
:10076C0010001000050000002DF3000068000000D0
:10077C0010001100050000000000000069000000DE
:10078C001000120005000000000000006A000000CC
:10079C001000130005000000000000006B000000BA
:1007AC001000140005000000000000006C000000A8
:1007BC001000150005000000000000006D00000096
:1007CC0010001600FFFF00000000000000000000F9
:1007DC00110000000A000000C3F500006F000000CB
:1007EC00110001000A000000C3F500006E000000BB
:1007FC001100000004000000EDF600007100000084
:10080C001100000004000000EDF600007200000072
:10081C001100010004000000EDF600007300000060
:10082C001100010004000000EDF60000740000004F
:10083C001100020004000000EDF60000750000003D
:10084C001100020004000000EDF60000760000002C
:10085C001100030004000000EDF60000770000001A
:10086C001100030004000000EDF600007000000011
:10087C00110004000A0000004D7001007900000016
:10088C001100050008000000DDF100007A000000F6
:10089C0011000400080000000000000070000000BF
:1008AC001100060003000000000000007C000000A6
:1008BC0011000600030000004572010070000000EA
:1008CC001100070005000000000000007E00000081
:1008DC001100080005000000B17101007F0000004C
:1008EC0011000900050000002DF30000800000003D
:1008FC0011000A000500000000000000810000004B
:10090C0011000B00FFFF00000000000000000000C1
:10091C0011000C0005000000000000008300000026
:10092C0011000D00050000001BF300008400000006
:10093C0011000E00050000002DF3000085000000E2
:10094C0011000F00050000000000000086000000F0
:10095C0011001000050000000000000087000000DE
:10096C0011001100050000000000000088000000CC
:10097C0011001200050000000000000089000000BA
:10098C001100130005000000000000008A000000A8
:10099C0011001400FFFF0000000000000000000028
:1009AC00120000000A000000C3F500008C000000DB
:1009BC00120001000A000000C3F500008B000000CB
:1009CC001200000003000000EDF600008E00000095
:1009DC001200000003000000EDF600008F00000084
:1009EC001200010003000000EDF600009000000072
:1009FC001200010003000000EDF600009100000061
:100A0C001200020003000000EDF60000920000004E
:100A1C001200020003000000EDF60000930000003D
:100A2C001200030003000000EDF60000940000002B
:100A3C001200030003000000EDF600008D00000022
:100A4C00120004000A0000004D7001009600000026
:100A5C00120005800A000000AD7001009700000034
:100A6C00120004000A000000000000008D000000CD
:100A7C0012000600030000000000000099000000B6
:100A8C001200060003000000457201008D000000FA
:100A9C001200070005000000000000009B00000091
:100AAC001200080005000000B17101009C0000005C
:100ABC0012000900050000002DF300009D0000004D
:100ACC0012000A0005000000000000009E0000005B
:100ADC0012000B00FFFF00000000000000000000EF
:100AEC0012000C000500000000000000A000000037
:100AFC0012000D00050000001BF30000A100000017
:100B0C0012000E00050000002DF30000A2000000F2
:100B1C0012000F000500000000000000A300000000
:100B2C00120010000500000000000000A4000000EE
:100B3C00120011000500000000000000A5000000DC
:100B4C00120012000500000000000000A6000000CA
:100B5C00120013000500000000000000A7000000B8
:100B6C0012001400FFFF0000000000000000000055
:100B7C00000000000A000000C3F50000A9000000FE
:100B8C00000001000A000000C3F50000A8000000EE
:100B9C000000000003000000EDF60000AB000000B8
:100BAC000000000003000000EDF60000AC000000A7
:100BBC000000010003000000EDF60000AD00000095
:100BCC000000010003000000EDF60000AE00000084
:100BDC000000020003000000EDF60000AF00000072
:100BEC000000020003000000EDF60000B000000061
:100BFC000000030003000000EDF60000B10000004F
:100C0C000000030003000000EDF60000AA00000045
:100C1C0000000400080000004D700100B30000004B
:100C2C0000000500080000004D700100B400000039
:100C3C0000000600060000006BF20000AA00000095
:100C4C00000007000200000000000000B6000000D9
:100C5C00000007000200000045720100AA0000001D
:100C6C00000008000800000000000000B8000000B0
:100C7C000000090008000000B1710100B90000007B
:100C8C0000000A000600000000000000BA0000008E
:100C9C0000000B00060000002DF30000BB0000005C
:100CAC0000000C00FFFF000000000000000000002E
:100CBC0000000D000500000000000000BD00000059
:100CCC0000000E00050000001BF30000BE00000039
:100CDC0000000F000500000000000000BF00000035
:100CEC0000001000050000002DF30000C000000003
:100CFC00000011000500000000000000C100000011
:100D0C00000012000500000000000000C2000000FE
:100D1C00000013000500000000000000C3000000EC
:100D2C0000001400FFFF00000000000000000000A5
:100D3C00130000000A000000C3F50000C50000000D
:100D4C00130001000A000000C3F50000C4000000FD
:100D5C001300000002000000EDF60000C7000000C8
:100D6C001300000002000000EDF60000C8000000B7
:100D7C001300010002000000EDF60000C9000000A5
:100D8C001300010002000000EDF60000CA00000094
:100D9C001300020002000000EDF60000CB00000082
:100DAC001300020002000000EDF60000CC00000071
:100DBC001300030002000000EDF60000CD0000005F
:100DCC001300030002000000EDF60000C600000056
:100DDC0013000400080000004D700100CF0000005B
:100DEC0013000500080000004D700100D000000049
:100DFC001300060008000000C5F20000C600000049
:100E0C00130007000200000000000000D2000000E8
:100E1C00130007000200000045720100C60000002C
:100E2C00130008000800000000000000D4000000BF
:100E3C001300090008000000B1710100D50000008A
:100E4C0013000A000400000000000000D60000009F
:100E5C0013000B00040000002DF30000D70000006D
:100E6C0013000C000400000000000000D80000007B
:100E7C0013000D00FFFF0000000000000000000048
:100E8C00140000800400000000000000DA000000E4
:100E9C00140001800400000000000000D9000000D4
:100EAC00140002800600000000000000DC000000BE
:100EBC00140003800600000000000000DD000000AC
:100ECC001400048006000000000000000000000078
:100EDC00150000000A000000C3F50000DF00000050
:100EEC00150001000A000000C3F50000DE00000040
:100EFC001500000003000000EDF60000E10000000A
:100F0C001500000003000000EDF60000E2000000F8
:100F1C001500010003000000EDF60000E3000000E6
:100F2C001500010003000000EDF60000E4000000D5
:100F3C001500020003000000EDF60000E5000000C3
:100F4C001500020003000000EDF60000E6000000B2
:100F5C001500030003000000EDF60000E7000000A0
:100F6C001500030003000000EDF60000E000000097
:100F7C0015000400080000004D700100E90000009D
:100F8C0015000500080000004D700100EA0000008B
:100F9C00150006000800000059710100E000000077
:100FAC00150007000200000000000000EC0000002B
:100FBC00150007000200000045720100E00000006F
:100FCC00150008000800000000000000EE00000002
:100FDC001500090008000000B1710100EF000000CD
:100FEC0015000A000800000000000000F0000000DE
:100FFC0015000B00080000002DF30000F1000000AC
:10100C0015000C000800000000000000F2000000B9
:10101C0015000D000800000000000000F3000000A7
:10102C0015000E00FFFF00003FF300000000000061
:10103C00160000000600000000000000F500000093
:10104C00160001800700000000000000F400000002
:10105C00170000000600000000000000F700000070
:10106C00170001800600000000000000F6000000E0
:10107C00180000000600000000000000F90000004D
:10108C00180001000600000000000000F80000003D
:10109C00190000800500000000000000FB000000AB
:1010AC001900018005000000B1710100FC00000076
:1010BC00190002800500000000000000FD00000087
:1010CC00190003800A00000081720100FE0000007C
:1010DC00190004800A00000000000000000000005D
:1010EC001A000000060000000000000000010000D3
:1010FC001A000100060000000000000001010000C1
:10110C001A000200060000000000000002010000AE
:10111C001A0003000600000000000000030100009C
:10112C001A0002000600000000000000040100008C
:10113C001A0001000600000000000000FF00000083
:10114C001B0000000600000000000000060100006B
:10115C001B00010006000000000000000701000059
:10116C001B00020006000000000000000801000047
:10117C001B00030006000000000000000901000035
:10118C001B00020006000000000000000A01000025
:10119C001B0001000600000000000000050100001B
:1011AC001C0000000A000000000000000C01000000
:1011BC001C0001800A000000000000000B01000070
:1011CC001D0000000A000000000000000E010000DD
:1011DC001D0001800A000000000000000D0100004D
:1011EC001E0000000A0000000000000010010000BA
:1011FC001E0001800A000000000000000F0100002A
:10120C001F000000FFFF00000000000000000000B5
:10121C0020000000FFFF00000000000000000000A4
:10122C0021000080060000000000000014010000F6
:10123C0021000180060000000000000015010000E4
:10124C0021000280060000000000000016010000D2
:10125C0021000380060000000000000017010000C0
:10126C0021000280060000000000000018010000B0
:10127C0021000180060000000000000013010000A6
:10128C002200008006000000000000001A0100008F
:10129C002200018006000000000000001B0100007D
:1012AC002200028006000000000000001C0100006B
:1012BC00220003800600000000000000190100005D
:1012CC0023000080FFFF0000000000000000000071
:1012DC002400008006000000000000001F01000038
:1012EC002400018006000000000000002001000026
:1012FC002400028006000000000000002101000014
:10130C002400038006000000000000002201000001
:10131C0024000280060000000000000023010000F1
:10132C002400018006000000000000001E010000E7
:10133C0025000080060000000000000025010000D0
:10134C002500010006000000000000002401000040
:10135C0026000000FFFF000000000000000000005D
:10136C0027000000FFFF000000000000000000004C
:10137C0028000000FFFF000000000000000000003B
:10138C0029000000FFFF000000000000000000002A
:10139C002A000000FFFF0000000000000000000019
:1013AC002B000000FFFF0000000000000000000008
:1013BC002C000000FFFF00000000000000000000F7
:1013CC002D000000FFFF00000000000000000000E6
:1013DC002E000000FFFF00000000000000000000D5
:1013EC002F000000FFFF00000000000000000000C4
:1013FC0030000000FFFF00000000000000000000B3
:10140C0031000080FFFF0000000000000000000021
:10141C0032000000FFFF0000000000000000000090
:10142C0033000080FFFF00000000000000000000FF
:10143C0034000080FFFF00000000000000000000EE
:10144C0035000000FFFF000000000000000000005D
:10145C00360000800400000000000000370100008E
:10146C00360001800400000000000000380100007C
:10147C00360002800400000000000000390100006A
:10148C00360003800400000000000000360100005C
:10149C00FFFF5500640056000000000000005C00D7
:1014AC00FF1300005A005E006500240000000000DD
:1014BC000000100000003800640000000000000074
:1014CC00060C0000BC0B6E00140070001B00080022
:1014DC0001007B00C815000078007D00820026000A
:1014EC000800000000001400000038006400000038
:1014FC002D0000000600400009008B001E008D002E
:10150C001C00080000009800AA15000095009A0025
:10151C009F002700080000000000140000003800A5
:10152C00640000002D00000006004000B90BA8006C
:10153C003C00AA001E0008000000B500C815B2004F
:10154C00B200B700BC002900080000000000140025
:10155C0000003800640000002E000000060040006F
:10156C00BA0BC4009600C600200008002200D1006F
:10157C00B414CE000000D30000002B000A000000C1
:10158C0000001E0000003800900100002F00000039
:10159C00060040003A00C4009600C6002000080077
:1015AC002200D100B414CE000000D30000002B00A8
:1015BC000A00000000001E0000003800900100002E
:1015CC002F00000006004400BB0BDE00E803E00027
:1015DC00210008000000EB003214E800E800ED00E8
:1015EC0000002C0008000000000018000000400063
:1015FC00E80300002F00000006004000FFFFD900A8
:10160C00E80300000A0008000000000000000000D1
:10161C000000DB0000000B0000000F0000000600C3
:10162C000000080064000800000000001006010023
:10163C00F307F80014000000000008000000000090
:10164C00000000000000FA00000031000000000063
:10165C0000000A0000002A006400000000000000E6
:10166C0006000800FFFF4000E80300000A00080025
:10167C0000000000000000000000420000000B0011
:10168C0000000A00000006000000080064000300CF
:10169C000000000010060100FFFF4500E8030000F9
:1016AC0000000800000000000000000000004600E0
:1016BC00000031000000140000000B0000000800C6
:1016CC00640014000000000010060100FFFF3C0045
:1016DC00E80300000000080000000000000000000B
:1016EC0000000000000000000000000000001400DA
:1016FC000000100064000000000000001002000058
:10170C00FFFF3900E80300000000080000000000A3
:10171C0000000000000000000000000000000000BD
:10172C000000140000001000640000000000000025
:10173C0010000000FFFF4900E80300000000080053
:10174C00000000000000000000000000000000008D
:10175C0000000000000014000000100064000000F5
:10176C0000000000100200000E000000E803000062
:10177C000000080000000000000000000000000055
:10178C000000000000000000000014000000100029
:10179C00640000000000000018000000E207F400E4
:1017AC00E80300000000080000000000000000003A
:1017BC000000000000000000000000000000140009
:1017CC000000100064000000000000000100000098
:1017DC00E307F600E803000000000800000000002A
:1017EC0000000000000000000000000000000000ED
:1017FC000000140000001000640000000000000055
:10180C0001000000DE07FF00E803000000000800F4
:10181C0000000000000000000000000000000000BC
:10182C000000000000001400000010006400000024
:10183C000000000001008000DF070501E803000044
:10184C000000080000000000000000000000000084
:10185C000000000000000000000014000000100058
:10186C0064000000000000000100800005000B0176
:10187C00E803000000000800000000000000000069
:10188C000000000000000000000000000000140038
:10189C0000001000640000000000000001000000C7
:1018AC000D000D01E803000000000800000000001E
:1018BC00000000000000000000000000000000001C
:1018CC000000140000001000640000000000000084
:1018DC000100000006000F01E803000000000800F2
:1018EC0000000000000000000000000000000000EC
:1018FC000000000000001400000010006400000054
:10190C000000000001000000DB071101E8030000EB
:10191C0000000800000000000000000000000000B3
:10192C000000000000000000000014000000100087
:10193C00640000000000000001000000DC07120140
:10194C00E803000000000800000000000000000098
:10195C000000000000000000000000000000140067
:10196C0000001000640000000000000001000000F6
:10197C00DD071301E8030000000008000000000070
:10198C00000000000000000000000000000000004B
:10199C0000001400000010006400000000000000B3
:1019AC0001008000E8071901E803000000000800AE
:1019BC00000000000000000000000000000000001B
:1019CC000000000000001400000010006400000083
:1019DC000000000001008000E9071D01E803000081
:1019EC0000000800000000000000000000000000E3
:1019FC0000000000000000000000140000001000B7
:101A0C00640000000000000001000000EA071E0155
:101A1C00E8030000000008000000000000000000C7
:101A2C000000000000000000000000000000140096
:101A3C0000001000640000000000000001008000A5
:101A4C00FD072401E803000000000800000000006E
:101A5C00000000000000000000000000000000007A
:101A6C0000001400000010006400000000000000E2
:101A7C0001008000D7072601E803000000000800E1
:101A8C00000000000000000000000000000000004A
:101A9C0000000000000014000000100064000000B2
:101AAC00000000000100000000082701E80300000E
:101ABC000000080000000000000000000000000012
:101ACC0000000000000000000000140000001000E6
:101ADC00640000000000000001000000DA0728018B
:101AEC00E8030000000008000000000000000000F7
:101AFC0000000000000000000000000000001400C6
:101B0C000000100064000000000000000100000054
:101B1C00FE072901E8030000000008000000000097
:101B2C0000000000000000000000000000000000A9
:101B3C000000140000001000640000000000000011
:101B4C0001000000D8072A01E8030000000008008B
:101B5C000000000000000000000000000000000079
:101B6C0000000000000014000000100064000000E1
:101B7C00000000000100000001082B01E803000038
:101B8C000000080000000000000000000000000041
:101B9C000000000000000000000014000000100015
:101BAC0064000000000000000100000008002C018F
:101BBC00E803000000000800000000000000000026
:101BCC0000000000000000000000000000001400F5
:101BDC000000100064000000000000000100000084
:101BEC00D2072D01E80300000000080000000000EF
:101BFC0000000000000000000000000000000000D9
:101C0C000000140000001000640000000000000040
:101C1C0001000000D5072E01E803000000000800B9
:101C2C0000000000000000000000000000000000A8
:101C3C000000000000001400000010006400000010
:101C4C000000000001000000D3072F01E803000092
:101C5C000000080000000000000000000000000070
:101C6C000000000000000000000014000000100044
:101C7C00640000000000000001000000D1073001EA
:101C8C00E803000000000800000000000000000055
:101C9C000000000000000000000000000000140024
:101CAC0000001000640000000000000001000000B3
:101CBC00EC073101E8030000000008000000000000
:101CCC000000000000000000000000000000000008
:101CDC000000100000001000640000000000000074
:101CEC00020000002E003601E8030000000008008E
:101CFC0000000000000000000000000000000000D8
:101D0C000000000000001000000010006400000043
:101D1C00000000000200000030003501E803000064
:101D2C00000008000000000000000000000000009F
:101D3C000000000000000000000010000000100077
:101D4C0064000000000000000200000022003301CB
:101D5C00E803000000000800000000000000000084
:101D6C000000000000000000000000000000140053
:101D7C0000001000640000000000000000000000E3
:101D8C0023003401E80300000000080000000000FC
:101D9C000000000000000000000000000000000037
:101DAC0000001000000010006400000000000000A3
:101DBC00020000000F006400E803000000000800AF
:101DCC000000000000000000000000000000000007
:101DDC00000000000000140000001000640000006F
:101DEC0000000000000000000A006D00E803000085
:101DFC0000000800000000000000000000000000CF
:101E0C0000000000000000000000140000001000A2
:101E1C006400000000000000000000000C006D00D9
:101E2C00E8030000000008000000000000000000B3
:101E3C000000000000000000000000000000140082
:101E4C000000100064000000000000000000000012
:101E5C0018003201E8030000000008000000000038
:101E6C000000000000000000000000000000000066
:101E7C0000001400000010006400000000000000CE
:101E8C000000000000000000000000000000000046
:101E9C000000000000000000000000000000000036
:101EAC000000000000000000000000000000000026
:081EBC0000000000000000001E
:101EC40003000000DC1E00005BEB0000610040002A
:081ED400000000000000000006
:101EDC0001004D5F4E47414D4500000089690100EE
:101EEC0001004D5F4F5054494F4E0000AD69010049
:101EFC0001004D5F5155495447000000C569010070
:101F0C0005000000241F0000E569010030003F00BF
:081F1C00C41E000000000000DB
:101F240001004D5F4A4B494C4C00000079EB000026
:101F340001004D5F524F55474800000079EB000007
:101F440001004D5F485552540000000079EB000039
:101F540001004D5F554C54524100000079EB0000E4
:101F640001004D5F4E4D41524500000079EB0000E9
:101F7400040000008C1F000011EC00003C00250050
:081F8400C41E00000100000072
:101F8C0001004D5F454E4447414D0000316A010050
:101F9C0001004D5F4D45535347000000516A01004D
:101FAC0001004D5F4152554E00000000C7EC00008F
:101FBC0002004D5F47414D4D41000000A16A0100F8
:101FCC000000010098B70000000000006848FFFF07
:101FDC000000FFFF6848FFFF0000000098B70000FA
:101FEC000000000098B700000000010098B7000046
:101FFC00000000006848FFFF0000FFFF6848FFFF7B
:10200C0000B587B006900591069840690599496915
:10201C00401A029002980599096C884203DC0298D8
:10202C0010F5002F00DA39E217208DF80D00059815
:10203C0010F002FC04900598B0F96600002800DC52
:10204C002CE2069890F970001638014601911A2876
:10205C0000F2FC810199DFE811F01B002800F90166
:10206C00F90135004D0081009F009000AE00BB00CF
:10207C006600D400E400F4000401140130013E01B8
:10208C004C015A0168017601AF01C301D401E5018D
:10209C000498012115F0CAFB00B9FFE104994CF238
:1020AC00AF40C0F20A008866D6E10498022115F010
:1020BC00BDFB00B9F2E104994CF2C440C0F20A0035
:1020CC008866C9E10499888C013088840498B0F939
:1020DC002400C92802DB0499C82088840499888CC0
:1020EC000968A1F8660004994BF65D70C0F20A000D
:1020FC008866B1E10499C88C0130C8840498B0F9A1
:10210C002600C92802DB0499C820C8840498008DD5
:10211C0010B904990120088504994BF67770C0F228
:10212C000A00886698E10499888C64308884049845
:10213C00B0F92400C92802DB0499C82088840499CA
:10214C00888C0968A1F8660004994CF2DD40C0F255
:10215C000A00886634208DF80D007DE1049890F813
:10216C00320028B904994BF69170C0F20A008866C7
:10217C00049800210DF0DDFE6EE1049890F8330018
:10218C0028B904994CF63110C0F20A0088660498FC
:10219C0001210DF0CEFE5FE1049890F8340028B9CF
:1021AC0004994CF2EA40C0F20A00886604980221B5
:1021BC000DF0BFFE50E104980A210DF0D3FE00B9DA
:1021CC006CE104994BF6AB70C0F20A00886643E1EF
:1021DC00049819210DF0C6FE00B95FE10498B0F91E
:1021EC002400312806DC04994CF20350C0F20A009A
:1021FC00886605E004994CF20350C0F20A00886628
:10220C002AE1049800210DF05DFE00B946E1049925
:10221C004CF21850C0F20A00886634208DF80D007C
:10222C001AE1049801210DF04DFE00B936E1049934
:10223C004CF22D50C0F20A00886634208DF80D0047
:10224C000AE1049802210DF03DFE00B926E1049943
:10225C004BF6C170C0F20A00886634208DF80D0070
:10226C00FAE0049803210DF02DFE00B916E1049953
:10227C004BF6D370C0F20A00886634208DF80D003E
:10228C00EAE0069890F856008007002807D50498D5
:10229C00002211460AF0B8FE00B9FFE006E00498EF
:1022AC00002101220AF0B0FE00B9F7E004994BF6C8
:1022BC00ED70C0F20A008866CEE004980021052279
:1022CC000AF0A2FE00B9E9E004994CF64D10C0F2F8
:1022DC000A008866C0E00498022101220AF094FEEC
:1022EC0000B9DBE004994CF66910C0F20A0088666C
:1022FC00B2E00498022105220AF086FE00B9CDE076
:10230C0004994CF67D10C0F20A008866A4E004988B
:10231C00012211460AF078FE00B9BFE004994CF690
:10232C009910C0F20A00886696E0049801210522F3
:10233C000AF06AFE00B9B1E004994BF6FF70C0F2E6
:10234C000A00886688E0049890F83500D0B900201F
:10235C00ADF80E00BDF90E0003280FDC0498BDF992
:10236C000E1000EB4101B1F852004000A1F85200F0
:10237C00BDF80E000130ADF80E00EBE7049901201A
:10238C0081F835000020ADF80E00BDF90E000328D1
:10239C000BDC04989DF80E1001220AF035FEBDF8F6
:1023AC000E000130ADF80E00EFE704994CF221005D
:1023BC00C0F20A0088664FE004980699496DC1F393
:1023CC00404203210DF0F5FD00B967E004994CF291
:1023DC004300C0F20A00886618208DF80D003BE01F
:1023EC000498072100220DF0E4FD00B956E0049991
:1023FC004CF24650C0F20A00886618208DF80D0089
:10240C002AE00498042100220DF0D3FD00B945E028
:10241C0004994CF26350C0F20A00886618208DF8BB
:10242C000D0019E004980699496DC1F34042022150
:10243C000DF0BFFD00B931E004994CF28050C0F2B0
:10244C000A00886618208DF80D0005E04CF67E30E9
:10245C00C0F2010013F04EFC069890F856000006EE
:10246C00002805D50499B1F862000130A1F862008A
:10247C0006980FF037FD0499B1F86E000630A1F8FC
:10248C006E00049840F20071C2F20001884205D13E
:10249C00049800689DF80D1019F0C0F907B000BD44
:1024AC0000B587B00690ADF816100492049810F0A1
:1024BC00C3F958B9049890F97100014602910728A4
:1024CC0003D002980938012800D841E1049810F093
:1024DC00B3F9D8B900208DF80F0040F6F430C2F2F1
:1024EC00000000680699098900EBC100B0F90600EC
:1024FC0001460191582802D00198612802D101208F
:10250C008DF80F009DF80F0000B921E106980AF034
:10251C00FFFF00B91CE140F6F430C2F20000006885
:10252C000699098900EBC100B0F906000238014692
:10253C000091602800F20C810099DFE811F0610035
:10254C00090109017200090109018500090109014C
:10255C000901090109010901090195000901090194
:10256C00090109010901A600090109010901090173
:10257C0009010901090109010901090109010901FF
:10258C00B700C70009010901090109010901090185
:10259C0009010901090109010901090109010901DF
:1025AC0009010901090109010901090109010901CF
:1025BC0009010901090109010901090109010901BF
:1025CC0009010901090109010901090109010901AF
:1025DC000901DA0009010901090109010901DF00FA
:1025EC00090109010901E6000901EB000901F000EC
:1025FC00F50009010901090109010901FC000301A8
:10260C00069802210CF0EBFC50B140F6F430C2F20B
:10261C00000000680699098900EBC1010020C88000
:10262C0096E00698B0F91A0003210AF001FC50B1AB
:10263C0040F6F430C2F2000000680699098900EBFC
:10264C00C1010020C88083E006980DF0FFFA50B15C
:10265C0040F6F430C2F2000000680699098900EBDC
:10266C00C1010020C88073E0069801210CF0B7FC72
:10267C0050B140F6F430C2F20000006806990989A6
:10268C0000EBC1010020C88062E00698012117F020
:10269C00F7F950B140F6F430C2F200000068069928
:1026AC00098900EBC1010020C88051E00698232164
:1026BC000EF039F840F6F430C2F2000000680699CA
:1026CC00098900EBC1010020C88041E00698B0F9EF
:1026DC001A0002210AF0ACFB50B140F6F430C2F201
:1026EC00000000680699098900EBC1010020C88030
:1026FC002EE0069801210CF072FC29E00698B0F946
:10270C001A0001210AF094FB22E0069802210CF039
:10271C0066FC1DE00698002117F0B2F918E0069847
:10272C0000210CF05CFC13E00698B0F91A000321B0
:10273C000AF07EFB0CE00698BDF91610049A11F015
:10274C006EFA05E00698B0F91A0002210AF070FB47
:04275C0007B000BD05
:1027600085B004904CF27B00C0F20A0003900498FC
:1027700090F836008DF80B009DF80B008DF80A00DC
:102780000A20ADF808000398411C03910078014627
:10279000019108283FD80199DFE801F006050A12E7
:1027A0001E2A3D3D360036E000208DF80A0032E05A
:1027B0000498B0F84A0010B101208DF80A002AE010
:1027C0000498B0F93C0030B10498B0F94C0010B155
:1027D00002208DF80A001EE00498B0F93E0030B1E6
:1027E0000498B0F94A0010B103208DF80A0012E0F5
:1027F0000498B0F9400030B10498B0F94E0010B11F
:1028000004208DF80A0006E00498B0F8460010B1E4
:1028100007208DF80A009DF80A109DF80B20002073
:102820009142009009D1BDF808000138ADF80800C8
:1028300080B2002818BF012000900098C00700282F
:0C2840007FF4A1AF9DF80A0005B07047BE
:10284C0000B583B0029002980068C06A00680190DD
:10285C0002980068406901990968884200D075E0C7
:10286C000198B0F932000538014600910B2800F2AE
:10287C006D800099DFE801F0066A186A406A4A6ABE
:10288C006A6A6A2A0298808D68B940F6F830C2F2FA
:10289C0000000068C00630B90298006800220A23C4
:1028AC0011460DF0DBFB51E00298808D68B940F6C3
:1028BC00F830C2F200000068C00630B90298006817
:1028CC000022052311460DF0C9FB3FE00298808DD4
:1028DC0018B114F027F904280DDC40F6F830C2F2D8
:1028EC0000000068C00630B902980068002214236A
:1028FC0011460DF0B3FB29E00299B1F864000130E8
:10290C00A1F864000199002048861FE040F2007194
:10291C00C2F20001B1F85C0020F00200A1F85C00EA
:10292C0040F6F830C2F200000078C00630B90298C8
:10293C0000680022142311460DF090FB0298B0F9A8
:10294C0024000A2801DC0BF05CFFFFE703B000BD9C
:10295C00190000004B0000007D000000AF000000DB
:10296C00E2000000140100004601000078010000A4
:10297C00AB010000DD0100000F020000420200006C
:10298C0074020000A6020000D80200000B03000035
:10299C003D0300006F030000A1030000D4030000FE
:1029AC0006040000380400006A0400009D040000C6
:1029BC00CF0400000105000033050000660500008F
:1029CC0098050000CA050000FC0500002F06000059
:1029DC006106000093060000C5060000F806000022
:1029EC002A0700005C0700008E070000C1070000EA
:1029FC00F307000025080000570800008A080000B3
:102A0C00BC080000EE08000020090000530900007B
:102A1C0085090000B7090000E90900001B0A000045
:102A2C004E0A0000800A0000B20A0000E40A00000E
:102A3C00170B0000490B00007B0B0000AD0B0000D6
:102A4C00DF0B0000120C0000440C0000760C0000A0
:102A5C00A80C0000DB0C00000D0D00003F0D000069
:102A6C00710D0000A30D0000D50D0000080E000034
:102A7C003A0E00006C0E00009E0E0000D00E0000FE
:102A8C00030F0000350F0000670F0000990F0000C6
:102A9C00CB0F0000FD0F0000301000006210000092
:102AAC0094100000C6100000F81000002A1100005D
:102ABC005D1100008F110000C1110000F311000026
:102ACC00251200005712000089120000BC120000F1
:102ADC00EE120000201300005213000084130000BB
:102AEC00B6130000E81300001A1400004D14000087
:102AFC007F140000B1140000E31400001515000051
:102B0C004715000079150000AB150000DD1500001D
:102B1C000F1600004116000074160000A6160000E7
:102B2C00D81600000A1700003C1700006E170000B2
:102B3C00A0170000D217000004180000361800007F
:102B4C00681800009A180000CC180000FE1800004D
:102B5C00301900006219000094190000C619000019
:102B6C00F81900002A1A00005C1A00008E1A0000E6
:102B7C00C01A0000F21A0000241B0000561B0000B3
:102B8C00881B0000BA1B0000EC1B00001E1C000080
:102B9C00501C0000821C0000B41C0000E61C00004D
:102BAC00181D00004A1D00007C1D0000AE1D000019
:102BBC00E01D0000111E0000431E0000751E0000E9
:102BCC00A71E0000D91E00000B1F00003D1F0000B7
:102BDC006F1F0000A11F0000D31F00000420000085
:102BEC0036200000682000009A200000CC20000055
:102BFC00FE20000030210000612100009321000024
:102C0C00C5210000F7210000292200005A220000F3
:102C1C008C220000BE220000F022000022230000C3
:102C2C005323000085230000B7230000E923000094
:102C3C001B2400004C2400007E240000B024000063
:102C4C00E224000013250000452500007725000034
:102C5C00A8250000DA2500000C2600003E26000006
:102C6C006F260000A1260000D326000004270000D8
:102C7C00362700006827000099270000CB270000AA
:102C8C00FD2700002E28000060280000922800007C
:102C9C00C3280000F5280000262900005829000050
:102CAC008A290000BB290000ED2900001E2A000023
:102CBC00502A0000822A0000B32A0000E52A0000F6
:102CCC00162B0000482B0000792B0000AB2B0000CA
:102CDC00DC2B00000E2C00003F2C0000712C00009F
:102CEC00A22C0000D42C0000052D0000372D000074
:102CFC00682D00009A2D0000CB2D0000FD2D00004A
:102D0C002E2E0000602E0000912E0000C22E00001E
:102D1C00F42E0000252F0000572F0000882F0000F4
:102D2C00BA2F0000EB2F00001C3000004E300000CA
:102D3C007F300000B0300000E230000013310000A2
:102D4C004431000076310000A7310000D83100007A
:102D5C000A3200003B3200006C3200009D32000051
:102D6C00CF3200000033000031330000623300002A
:102D7C0094330000C5330000F63300002734000004
:102D8C00593400008A340000BB340000EC340000DD
:102D9C001D3500004F35000080350000B1350000B6
:102DAC00E235000013360000443600007536000092
:102DBC00A6360000D8360000093700003A3700006C
:102DCC006B3700009C370000CD370000FE37000049
:102DDC002F3800006038000091380000C238000025
:102DEC00F338000024390000553900008639000002
:102DFC00B7390000E8390000193A00004A3A0000DF
:102E0C007B3A0000AC3A0000DD3A00000E3B0000BB
:102E1C003F3B00006F3B0000A03B0000D13B00009B
:102E2C00023C0000333C0000643C0000953C000078
:102E3C00C53C0000F63C0000273D0000583D00005A
:102E4C00893D0000BA3D0000EA3D00001B3E000039
:102E5C004C3E00007D3E0000AD3E0000DE3E00001A
:102E6C000F3F00003F3F0000703F0000A13F0000FB
:102E7C00D23F0000024000003340000064400000DC
:102E8C0094400000C5400000F540000026410000C1
:102E9C005741000087410000B8410000E8410000A4
:102EAC00194200004A4200007A420000AB42000086
:102EBC00DB4200000C4300003C4300006D4300006B
:102ECC009D430000CE430000FE4300002F44000051
:102EDC005F4400008F440000C0440000F044000038
:102EEC00214500005145000081450000B24500001D
:102EFC00E245000013460000434600007346000004
:102F0C00A4460000D44600000447000034470000EB
:102F1C006547000095470000C5470000F5470000D5
:102F2C00264800005648000086480000B6480000BD
:102F3C00E7480000174900004749000077490000A6
:102F4C00A7490000D7490000074A0000384A000092
:102F5C00684A0000984A0000C84A0000F84A00007D
:102F6C00284B0000584B0000884B0000B84B000069
:102F7C00E84B0000184C0000484C0000784C000056
:102F8C00A84C0000D84C0000084D0000384D000043
:102F9C00684D0000984D0000C84D0000F74D000032
:102FAC00274E0000574E0000874E0000B74E000021
:102FBC00E74E0000164F0000464F0000764F000011
:102FCC00A64F0000D64F0000055000003550000001
:102FDC006550000095500000C4500000F4500000F3
:102FEC00245100005351000083510000B3510000E4
:102FFC00E2510000125200004152000071520000D8
:10300C00A1520000D0520000005300002F530000CA
:10301C005F5300008E530000BE530000ED530000C0
:10302C001D5400004C5400007C540000AB540000B4
:10303C00DB5400000A5500003955000069550000AA
:10304C0098550000C8550000F755000026560000A2
:10305C005656000085560000B4560000E35600009A
:10306C00135700004257000071570000A157000091
:10307C00D0570000FF5700002E5800005D5800008C
:10308C008C580000BC580000EB5800001A59000086
:10309C004959000078590000A7590000D659000082
:1030AC00055A0000345A0000635A0000925A00007E
:1030BC00C15A0000F05A00001F5B00004E5B00007C
:1030CC007D5B0000AC5B0000DB5B00000A5C000079
:1030DC00395C0000685C0000975C0000C65C000076
:1030EC00F45C0000235D0000525D0000815D000077
:1030FC00B05D0000DE5D00000D5E00003C5E000077
:10310C006B5E0000995E0000C85E0000F75E000078
:10311C00255F0000545F0000835F0000B15F00007A
:10312C00E05F00000F6000003D6000006C6000007C
:10313C009A600000C9600000F76000002661000082
:10314C005461000083610000B1610000E061000087
:10315C000E6200003D6200006B620000996200008C
:10316C00C8620000F6620000256300005363000093
:10317C0081630000B0630000DE6300000C6400009B
:10318C003A6400006964000097640000C5640000A4
:10319C00F364000021650000506500007E650000AE
:1031AC00AC650000DA6500000866000036660000B9
:1031BC006466000092660000C0660000EE660000C7
:1031CC001C6700004A67000078670000A6670000D3
:1031DC00D467000002680000306800005E680000E0
:1031EC008C680000BA680000E868000016690000EE
:1031FC0043690000716900009F690000CD690000FF
:10320C00FB690000286A0000566A0000846A00000E
:10321C00B16A0000DF6A00000D6B00003A6B000021
:10322C00686B0000966B0000C36B0000F16B000034
:10323C001E6C00004C6C00007A6C0000A76C000047
:10324C00D56C0000026D0000306D00005D6D00005B
:10325C008A6D0000B86D0000E56D0000136E000073
:10326C00406E00006D6E00009B6E0000C86E00008A
:10327C00F56E0000236F0000506F00007D6F0000A2
:10328C00AA6F0000D86F00000570000032700000BB
:10329C005F7000008C700000BA700000E7700000D6
:1032AC0014710000417100006E7100009B710000F0
:1032BC00C8710000F5710000227200004F7200000E
:1032CC007C720000A9720000D6720000037300002B
:1032DC00307300005D73000089730000B67300004A
:1032EC00E3730000107400003D740000697400006A
:1032FC0096740000C3740000F07400001C7500008C
:10330C004975000076750000A2750000CF750000AD
:10331C00FC750000287600005576000081760000D0
:10332C00AE760000DA7600000777000033770000F5
:10333C00607700008C770000B9770000E57700001B
:10334C00127800003E7800006A7800009778000040
:10335C00C3780000EF7800001C7900004879000069
:10336C0074790000A0790000CD790000F979000093
:10337C00257A0000517A00007D7A0000AA7A0000BC
:10338C00D67A0000027B00002E7B00005A7B0000E6
:10339C00867B0000B27B0000DE7B00000A7C000014
:1033AC00367C0000627C00008E7C0000BA7C000041
:1033BC00E67C0000117D00003D7D0000697D000071
:1033CC00957D0000C17D0000EC7D0000187E0000A2
:1033DC00447E0000707E00009B7E0000C77E0000D3
:1033EC00F37E00001E7F00004A7F0000767F000005
:1033FC00A17F0000CD7F0000F87F0000248000003A
:10340C004F8000007B800000A6800000D28000006E
:10341C00FD80000029810000548100007F810000A4
:10342C00AB810000D6810000018200002D820000DB
:10343C005882000083820000AE820000DA82000015
:10344C0005830000308300005B830000868300004E
:10345C00B1830000DC83000007840000338400008B
:10346C005E84000089840000B4840000DF840000C6
:10347C0009850000348500005F8500008A85000006
:10348C00B5850000E08500000B8600003686000044
:10349C00608600008B860000B6860000E186000086
:1034AC000B87000036870000618700008B870000C7
:1034BC00B6870000E18700000B880000368800000A
:1034CC00608800008B880000B5880000E088000050
:1034DC000A890000358900005F8900008A89000094
:1034EC00B4890000DE890000098A0000338A0000DC
:1034FC005D8A0000888A0000B28A0000DC8A000025
:10350C00068B0000318B00005B8B0000858B00006C
:10351C00AF8B0000D98B0000038C00002D8C0000B9
:10352C00578C0000818C0000AB8C0000D58C000007
:10353C00FF8C0000298D0000538D00007D8D000054
:10354C00A78D0000D18D0000FB8D0000248E0000A3
:10355C004E8E0000788E0000A28E0000CB8E0000F4
:10356C00F58E00001F8F0000498F0000728F000045
:10357C009C8F0000C58F0000EF8F00001990000099
:10358C00429000006C90000095900000BF900000ED
:10359C00E8900000119100003B9100006491000044
:1035AC008E910000B7910000E09100000A9200009B
:1035BC00339200005C92000085920000AF920000F4
:1035CC00D8920000019300002A930000539300004E
:1035DC007C930000A5930000CE930000F7930000AD
:1035EC002094000049940000729400009B94000009
:1035FC00C4940000ED940000169500003F95000067
:10360C006895000090950000B9950000E2950000C7
:10361C000B960000339600005C9600008596000027
:10362C00AD960000D6960000FF960000279700008C
:10363C005097000078970000A1970000C9970000F0
:10364C00F29700001A980000439800006B98000055
:10365C0093980000BC980000E49800000C990000BE
:10366C00359900005D99000085990000AD99000026
:10367C00D6990000FE990000269A00004E9A000090
:10368C00769A00009E9A0000C69A0000EE9A0000FE
:10369C00169B00003E9B0000669B00008E9B00006A
:1036AC00B69B0000DE9B0000069C00002E9C0000D8
:1036BC00559C00007D9C0000A59C0000CD9C00004A
:1036CC00F49C00001C9D0000449D00006C9D0000BB
:1036DC00939D0000BB9D0000E29D00000A9E00002F
:1036EC00319E0000599E0000809E0000A89E0000A4
:1036FC00CF9E0000F79E00001E9F0000459F00001B
:10370C006D9F0000949F0000BB9F0000E39F000092
:10371C000AA0000031A0000058A000007FA000000B
:10372C00A7A00000CEA00000F5A000001CA1000086
:10373C0043A100006AA1000091A10000B8A1000003
:10374C00DFA1000006A200002DA2000054A2000080
:10375C007BA20000A1A20000C8A20000EFA2000002
:10376C0016A300003CA3000063A300008AA3000082
:10377C00B0A30000D7A30000FEA3000024A4000007
:10378C004BA4000071A4000098A40000BEA400008B
:10379C00E5A400000BA5000032A5000058A5000010
:1037AC007EA50000A5A50000CBA50000F1A500009A
:1037BC0018A600003EA6000064A600008AA6000021
:1037CC00B0A60000D7A60000FDA6000023A70000AD
:1037DC0049A700006FA7000095A70000BBA7000039
:1037EC00E1A7000007A800002DA8000053A80000C6
:1037FC0078A800009EA80000C4A80000EAA8000059
:10380C0010A9000035A900005BA9000081A90000E7
:10381C00A6A90000CCA90000F2A9000017AA00007C
:10382C003DAA000062AA000088AA0000ADAA000010
:10383C00D3AA0000F8AA00001EAB000043AB0000A6
:10384C0068AB00008EAB0000B3AB0000D8AB00003F
:10385C00FDAB000023AC000048AC00006DAC0000D8
:10386C0092AC0000B7AC0000DCAC000001AD000075
:10387C0026AD00004BAD000070AD000095AD000012
:10388C00BAAD0000DFAD000004AE000029AE0000B0
:10389C004EAE000073AE000097AE0000BCAE000050
:1038AC00E1AE000006AF00002AAF00004FAF0000F1
:1038BC0073AF000098AF0000BDAF0000E1AF000097
:1038CC0006B000002AB000004FB0000073B000003A
:1038DC0097B00000BCB00000E0B0000004B10000E4
:1038EC0029B100004DB1000071B1000096B100008B
:1038FC00BAB10000DEB1000002B2000026B2000036
:10390C004AB200006EB2000092B20000B6B20000E3
:10391C00DAB20000FEB2000022B3000046B3000091
:10392C006AB300008EB30000B2B30000D5B3000040
:10393C00F9B300001DB4000041B4000064B40000F1
:10394C0088B40000ACB40000CFB40000F3B40000A5
:10395C0016B500003AB500005DB5000081B5000059
:10396C00A4B50000C8B50000EBB500000EB6000011
:10397C0032B6000055B6000078B600009BB60000C9
:10398C00BFB60000E2B6000005B7000028B7000083
:10399C004BB700006EB7000091B70000B4B7000041
:1039AC00D7B70000FAB700001DB8000040B80000FF
:1039BC0063B8000086B80000A9B80000CCB80000BD
:1039CC00EEB8000011B9000034B9000056B900007F
:1039DC0079B900009CB90000BEB90000E1B9000043
:1039EC0003BA000026BA000048BA00006BBA000007
:1039FC008DBA0000B0BA0000D2BA0000F4BA0000D0
:103A0C0017BB000039BB00005BBB00007EBB000095
:103A1C00A0BB0000C2BB0000E4BB000006BC000061
:103A2C0028BC00004ABC00006DBC00008FBC00002C
:103A3C00B1BC0000D2BC0000F4BC000016BD0000FC
:103A4C0038BD00005ABD00007CBD00009EBD0000CA
:103A5C00BFBD0000E1BD000003BE000024BE00009D
:103A6C0046BE000068BE000089BE0000ABBE000070
:103A7C00CCBE0000EEBE00000FBF000031BF000046
:103A8C0052BF000074BF000095BF0000B6BF00001D
:103A9C00D8BF0000F9BF00001AC000003BC00000F6
:103AAC005CC000007EC000009FC00000C0C00000D1
:103ABC00E1C0000002C1000023C1000044C10000AD
:103ACC0065C1000086C10000A7C10000C8C100008C
:103ADC00E8C1000009C200002AC200004BC200006D
:103AEC006BC200008CC20000ADC20000CDC2000051
:103AFC00EEC200000FC300002FC3000050C3000033
:103B0C0070C3000091C30000B1C30000D1C300001A
:103B1C00F2C3000012C4000032C4000053C4000001
:103B2C0073C4000093C40000B3C40000D3C40000ED
:103B3C00F4C4000014C5000034C5000054C50000D6
:103B4C0074C5000094C50000B4C50000D4C50000C5
:103B5C00F3C5000013C6000033C6000053C60000B6
:103B6C0073C6000092C60000B2C60000D2C60000A8
:103B7C00F1C6000011C7000031C7000050C700009B
:103B8C0070C700008FC70000AFC70000CEC7000091
:103B9C00EEC700000DC800002CC800004CC8000087
:103BAC006BC800008AC80000A9C80000C9C8000082
:103BBC00E8C8000007C9000026C9000045C900007C
:103BCC0064C9000083C90000A2C90000C1C900007B
:103BDC00E0C90000FFC900001ECA00003DCA000079
:103BEC005BCA00007ACA000099CA0000B8CA00007B
:103BFC00D6CA0000F5CA000014CB000032CB00007E
:103C0C0051CB00006FCB00008ECB0000ACCB000082
:103C1C00CBCB0000E9CB000007CC000026CC000089
:103C2C0044CC000062CC000081CC00009FCC000092
:103C3C00BDCC0000DBCC0000F9CC000017CD00009F
:103C4C0036CD000054CD000072CD000090CD0000A8
:103C5C00ADCD0000CBCD0000E9CD000007CE0000BB
:103C6C0025CE000043CE000060CE00007ECE0000CA
:103C7C009CCE0000BACE0000D7CE0000F5CE0000DE
:103C8C0012CF000030CF00004DCF00006BCF0000F2
:103C9C0088CF0000A6CF0000C3CF0000E0CF00000B
:103CAC00FECF00001BD0000038D0000056D0000022
:103CBC0073D0000090D00000ADD00000CAD000003E
:103CCC00E7D0000004D1000021D100003ED100005B
:103CDC005BD1000078D1000095D10000B2D100007A
:103CEC00CFD10000EBD1000008D2000025D200009B
:103CFC0042D200005ED200007BD2000097D20000BE
:103D0C00B4D20000D1D20000EDD200000AD30000E2
:103D1C0026D3000042D300005FD300007BD3000009
:103D2C0097D30000B4D30000D0D30000ECD3000034
:103D3C0008D4000024D4000041D400005DD400005D
:103D4C0079D4000095D40000B1D40000CDD400008B
:103D5C00E9D4000005D5000020D500003CD50000BA
:103D6C0058D5000074D5000090D50000ABD50000EC
:103D7C00C7D50000E3D50000FED500001AD6000020
:103D8C0035D6000051D600006CD6000088D6000055
:103D9C00A3D60000BED60000DAD60000F5D600008F
:103DAC0010D700002CD7000047D7000062D70000C6
:103DBC007DD7000098D70000B3D70000CED7000005
:103DCC00EAD7000004D800001FD800003AD8000041
:103DDC0055D8000070D800008BD80000A6D8000081
:103DEC00C1D80000DBD80000F6D8000011D90000C3
:103DFC002BD9000046D9000060D900007BD9000007
:103E0C0095D90000B0D90000CAD90000E5D900004E
:103E1C00FFD9000019DA000034DA00004EDA000095
:103E2C0068DA000082DA00009DDA0000B7DA0000E0
:103E3C00D1DA0000EBDA000005DB00001FDB00002C
:103E4C0039DB000053DB00006DDB000087DB00007A
:103E5C00A1DB0000BADB0000D4DB0000EEDB0000CD
:103E6C0008DC000021DC00003BDC000054DC00001E
:103E7C006EDC000088DC0000A1DC0000BBDC000074
:103E8C00D4DC0000EDDC000007DD000020DD0000CC
:103E9C0039DD000053DD00006CDD000085DD000025
:103EAC009EDD0000B8DD0000D1DD0000EADD000081
:103EBC0003DE00001CDE000035DE00004EDE0000DC
:103ECC0067DE00007FDE000098DE0000B1DE00003F
:103EDC00CADE0000E3DE0000FBDE000014DF0000A1
:103EEC002DDF000045DF00005EDF000076DF000004
:103EFC008FDF0000A7DF0000C0DF0000D8DF00006C
:103F0C00F1DF000009E0000021E000003AE00000D1
:103F1C0052E000006AE0000082E000009AE000003D
:103F2C00B2E00000CAE00000E2E00000FAE00000AD
:103F3C0012E100002AE1000042E100005AE1000019
:103F4C0072E100008AE10000A2E10000B9E100008A
:103F5C00D1E10000E9E1000000E2000018E20000FD
:103F6C002FE2000047E200005EE2000076E2000073
:103F7C008DE20000A5E20000BCE20000D3E20000EC
:103F8C00EBE2000002E3000019E3000030E3000064
:103F9C0047E300005FE3000076E300008DE30000E0
:103FAC00A4E30000BBE30000D2E30000E9E300005F
:103FBC00FFE3000016E400002DE4000044E40000E0
:103FCC005BE4000071E4000088E400009FE4000062
:103FDC00B5E40000CCE40000E2E40000F9E40000E9
:103FEC000FE5000026E500003CE5000052E500006E
:103FFC0069E500007FE5000095E50000ABE50000F9
:10400C00C2E50000D8E50000EEE5000004E6000083
:10401C001AE6000030E6000046E600005CE6000010
:10402C0072E6000088E600009EE60000B3E60000A1
:10403C00C9E60000DFE60000F5E600000AE7000034
:10404C0020E7000036E700004BE7000061E70000C6
:10405C0076E700008CE70000A1E70000B6E700005F
:10406C00CCE70000E1E70000F6E700000CE80000F8
:10407C0021E8000036E800004BE8000060E8000092
:10408C0075E800008AE800009FE80000B4E8000032
:10409C00C9E80000DEE80000F3E8000008E90000D1
:1040AC001DE9000031E9000046E900005BE9000071
:1040BC006FE9000084E9000099E90000ADE9000017
:1040CC00C2E90000D6E90000EBE90000FFE90000BE
:1040DC0013EA000028EA00003CEA000050EA000065
:1040EC0064EA000079EA00008DEA0000A1EA000011
:1040FC00B5EA0000C9EA0000DDEA0000F1EA0000C0
:10410C0005EB000019EB00002DEB000041EB00006B
:10411C0054EB000068EB00007CEB000090EB00001F
:10412C00A3EB0000B7EB0000CBEB0000DEEB0000D4
:10413C00F2EB000005EC000019EC00002CEC000088
:10414C003FEC000053EC000066EC000079EC000042
:10415C008CEC0000A0EC0000B3EC0000C6EC0000FE
:10416C00D9EC0000ECEC0000FFEC000012ED0000BC
:10417C0025ED000038ED00004BED00005EED000079
:10418C0071ED000083ED000096ED0000A9ED00003C
:10419C00BBED0000CEED0000E1ED0000F3ED000002
:1041AC0006EE000018EE00002BEE00003DEE0000C5
:1041BC004FEE000062EE000074EE000086EE000090
:1041CC0099EE0000ABEE0000BDEE0000CFEE00005B
:1041DC00E1EE0000F3EE000005EF000017EF000029
:1041EC0029EF00003BEF00004DEF00005FEF0000F7
:1041FC0071EF000082EF000094EF0000A6EF0000CA
:10420C00B7EF0000C9EF0000DBEF0000ECEF00009F
:10421C00FEEF00000FF0000021F0000032F0000073
:10422C0043F0000055F0000066F0000077F000004D
:10423C0089F000009AF00000ABF00000BCF0000028
:10424C00CDF00000DEF00000EFF0000000F1000007
:10425C0011F1000022F1000033F1000044F10000E4
:10426C0054F1000065F1000076F1000087F10000C8
:10427C0097F10000A8F10000B8F10000C9F10000AE
:10428C00D9F10000EAF10000FAF100000BF2000095
:10429C001BF200002BF200003CF200004CF200007C
:1042AC005CF200006CF200007CF200008CF200006A
:1042BC009CF20000ADF20000BDF20000CCF2000058
:1042CC00DCF20000ECF20000FCF200000CF3000049
:1042DC001CF300002BF300003BF300004BF3000039
:1042EC005AF300006AF3000079F3000089F3000030
:1042FC0098F30000A8F30000B7F30000C7F3000028
:10430C00D6F30000E5F30000F5F3000004F4000020
:10431C0013F4000022F4000031F4000040F400001B
:10432C004FF400005EF400006DF400007CF400001B
:10433C008BF400009AF40000A9F40000B8F400001B
:10434C00C6F40000D5F40000E4F40000F2F4000020
:10435C0001F500000FF500001EF500002CF5000023
:10436C003BF5000049F5000058F5000066F500002B
:10437C0074F5000082F5000091F500009FF5000037
:10438C00ADF50000BBF50000C9F50000D7F5000045
:10439C00E5F50000F3F5000001F600000FF6000053
:1043AC001DF600002BF6000038F6000046F6000063
:1043BC0054F6000062F600006FF600007DF6000077
:1043CC008AF6000098F60000A5F60000B3F600008F
:1043DC00C0F60000CEF60000DBF60000E8F60000A8
:1043EC00F5F6000003F7000010F700001DF70000C1
:1043FC002AF7000037F7000044F7000051F70000DF
:10440C005EF700006BF7000078F7000085F70000FE
:10441C0092F700009EF70000ABF70000B8F7000021
:10442C00C5F70000D1F70000DEF70000EAF7000046
:10443C00F7F7000003F8000010F800001CF800006B
:10444C0028F8000035F8000041F800004DF8000095
:10445C005AF8000066F8000072F800007EF80000C0
:10446C008AF8000096F80000A2F80000AEF80000F0
:10447C00BAF80000C6F80000D2F80000DDF8000021
:10448C00E9F80000F5F8000001F900000CF9000053
:10449C0018F9000023F900002FF900003BF9000087
:1044AC0046F9000051F900005DF9000068F90000C0
:1044BC0073F900007FF900008AF9000095F90000FB
:1044CC00A0F90000ABF90000B7F90000C2F9000038
:1044DC00CDF90000D8F90000E3F90000EDF9000077
:1044EC00F8F9000003FA00000EFA000019FA0000B7
:1044FC0023FA00002EFA000039FA000043FA0000FB
:10450C004EFA000058FA000063FA00006DFA000041
:10451C0078FA000082FA00008CFA000097FA00008A
:10452C00A1FA0000ABFA0000B5FA0000C0FA0000D6
:10453C00CAFA0000D4FA0000DEFA0000E8FA000023
:10454C00F2FA0000FCFA000005FB00000FFB000073
:10455C0019FB000023FB00002DFB000036FB0000C4
:10456C0040FB00004AFB000053FB00005DFB000019
:10457C0066FB000070FB000079FB000083FB000071
:10458C008CFB000095FB00009EFB0000A8FB0000CC
:10459C00B1FB0000BAFB0000C3FB0000CCFB000029
:1045AC00D5FB0000DEFB0000E7FB0000F0FB000089
:1045BC00F9FB000002FC00000BFC000014FC0000E6
:1045CC001CFC000025FC00002EFC000036FC00004A
:1045DC003FFC000048FC000050FC000059FC0000AF
:1045EC0061FC000069FC000072FC00007AFC000019
:1045FC0082FC00008BFC000093FC00009BFC000084
:10460C00A3FC0000ABFC0000B3FC0000BBFC0000F2
:10461C00C3FC0000CBFC0000D3FC0000DBFC000062
:10462C00E3FC0000EBFC0000F2FC0000FAFC0000D4
:10463C0002FD000009FD000011FD000019FD000045
:10464C0020FD000028FD00002FFD000036FD0000BD
:10465C003EFD000045FD00004CFD000054FD000037
:10466C005BFD000062FD000069FD000070FD0000B4
:10467C0077FD00007FFD000086FD00008CFD000032
:10468C0093FD00009AFD0000A1FD0000A8FD0000B4
:10469C00AFFD0000B5FD0000BCFD0000C3FD000037
:1046AC00C9FD0000D0FD0000D6FD0000DDFD0000BE
:1046BC00E3FD0000EAFD0000F0FD0000F7FD000046
:1046CC00FDFD000003FE000009FE000010FE0000CE
:1046DC0016FE00001CFE000022FE000028FE00005A
:1046EC002EFE000034FE00003AFE000040FE0000EA
:1046FC0046FE00004BFE000051FE000057FE00007D
:10470C005DFE000062FE000068FE00006DFE000011
:10471C0073FE000078FE00007EFE000083FE0000A9
:10472C0089FE00008EFE000093FE000099FE000042
:10473C009EFE0000A3FE0000A8FE0000ADFE0000DF
:10474C00B2FE0000B7FE0000BCFE0000C1FE00007F
:10475C00C6FE0000CBFE0000D0FE0000D5FE00001F
:10476C00DAFE0000DEFE0000E3FE0000E8FE0000C2
:10477C00ECFE0000F1FE0000F6FE0000FAFE000068
:10478C00FFFE000003FF000007FF00000CFF00000D
:10479C0010FF000014FF000019FF00001DFF0000B7
:1047AC0021FF000025FF000029FF00002DFF000065
:1047BC0031FF000035FF000039FF00003DFF000015
:1047CC0041FF000045FF000048FF00004CFF0000C7
:1047DC0050FF000053FF000057FF00005BFF00007C
:1047EC005EFF000062FF000065FF000069FF000033
:1047FC006CFF00006FFF000073FF000076FF0000ED
:10480C0079FF00007CFF000080FF000083FF0000A8
:10481C0086FF000089FF00008CFF00008FFF000066
:10482C0092FF000095FF000097FF00009AFF000028
:10483C009DFF0000A0FF0000A2FF0000A5FF0000EC
:10484C00A8FF0000AAFF0000ADFF0000AFFF0000B2
:10485C00B2FF0000B4FF0000B7FF0000B9FF00007A
:10486C00BBFF0000BEFF0000C0FF0000C2FF000045
:10487C00C4FF0000C6FF0000C8FF0000CAFF000014
:10488C00CCFF0000CEFF0000D0FF0000D2FF0000E4
:10489C00D4FF0000D6FF0000D8FF0000D9FF0000B5
:1048AC00DBFF0000DDFF0000DEFF0000E0FF00008A
:1048BC00E1FF0000E3FF0000E4FF0000E6FF000062
:1048CC00E7FF0000E9FF0000EAFF0000EBFF00003B
:1048DC00ECFF0000EEFF0000EFFF0000F0FF000017
:1048EC00F1FF0000F2FF0000F3FF0000F4FF0000F6
:1048FC00F5FF0000F6FF0000F7FF0000F7FF0000D7
:10490C00F8FF0000F9FF0000FAFF0000FAFF0000BA
:10491C00FBFF0000FBFF0000FCFF0000FCFF0000A1
:10492C00FDFF0000FDFF0000FEFF0000FEFF000089
:10493C00FEFF0000FFFF0000FFFF0000FFFF000074
:10494C00FFFF0000FFFF0000FFFF0000FFFF000063
:10495C00FFFF0000FFFF0000FFFF0000FFFF000053
:10496C00FFFF0000FFFF0000FFFF0000FEFF000044
:10497C00FEFF0000FEFF0000FDFF0000FDFF000039
:10498C00FCFF0000FCFF0000FBFF0000FBFF000031
:10499C00FAFF0000FAFF0000F9FF0000F8FF00002A
:1049AC00F7FF0000F7FF0000F6FF0000F5FF000026
:1049BC00F4FF0000F3FF0000F2FF0000F1FF000025
:1049CC00F0FF0000EFFF0000EEFF0000ECFF000026
:1049DC00EBFF0000EAFF0000E9FF0000E7FF00002A
:1049EC00E6FF0000E4FF0000E3FF0000E1FF000031
:1049FC00E0FF0000DEFF0000DDFF0000DBFF000039
:104A0C00D9FF0000D8FF0000D6FF0000D4FF000043
:104A1C00D2FF0000D0FF0000CEFF0000CCFF000052
:104A2C00CAFF0000C8FF0000C6FF0000C4FF000062
:104A3C00C2FF0000C0FF0000BEFF0000BBFF000073
:104A4C00B9FF0000B7FF0000B4FF0000B2FF000088
:104A5C00AFFF0000ADFF0000AAFF0000A8FF0000A0
:104A6C00A5FF0000A2FF0000A0FF00009DFF0000BA
:104A7C009AFF000097FF000095FF000092FF0000D6
:104A8C008FFF00008CFF000089FF000086FF0000F4
:104A9C0083FF000080FF00007CFF000079FF000016
:104AAC0076FF000073FF00006FFF00006CFF00003A
:104ABC0069FF000065FF000062FF00005EFF000060
:104ACC005BFF000057FF000053FF000050FF000089
:104ADC004CFF000048FF000045FF000041FF0000B4
:104AEC003DFF000039FF000035FF000031FF0000E2
:104AFC002DFF000029FF000025FF000021FF000012
:104B0C001DFF000019FF000014FF000010FF000043
:104B1C000CFF000007FF000003FF0000FFFE000079
:104B2C00FAFE0000F6FE0000F1FE0000ECFE0000B4
:104B3C00E8FE0000E3FE0000DEFE0000DAFE0000EE
:104B4C00D5FE0000D0FE0000CBFE0000C6FE00002B
:104B5C00C1FE0000BCFE0000B7FE0000B2FE00006B
:104B6C00ADFE0000A8FE0000A3FE00009EFE0000AB
:104B7C0099FE000093FE00008EFE000089FE0000EE
:104B8C0083FE00007EFE000078FE000073FE000035
:104B9C006DFE000068FE000062FE00005DFE00007D
:104BAC0057FE000051FE00004BFE000046FE0000C8
:104BBC0040FE00003AFE000034FE00002EFE000015
:104BCC0028FE000022FE00001CFE000016FE000065
:104BDC0010FE000009FE000003FE0000FDFD0000B9
:104BEC00F7FD0000F0FD0000EAFD0000E3FD000011
:104BFC00DDFD0000D6FD0000D0FD0000C9FD000069
:104C0C00C3FD0000BCFD0000B5FD0000AFFD0000C1
:104C1C00A8FD0000A1FD00009AFD000093FD00001E
:104C2C008CFD000086FD00007FFD000077FD00007C
:104C3C0070FD000069FD000062FD00005BFD0000DE
:104C4C0054FD00004CFD000045FD00003EFD000041
:104C5C0036FD00002FFD000028FD000020FD0000A7
:104C6C0019FD000011FD000009FD000002FD00000F
:104C7C00FAFC0000F2FC0000EBFC0000E3FC00007E
:104C8C00DBFC0000D3FC0000CBFC0000C3FC0000EC
:104C9C00BBFC0000B3FC0000ABFC0000A3FC00005C
:104CAC009BFC000093FC00008BFC000082FC0000CD
:104CBC007AFC000072FC000069FC000061FC000042
:104CCC0058FC000050FC000048FC00003FFC0000B9
:104CDC0036FC00002EFC000025FC00001CFC000033
:104CEC0014FC00000BFC000002FC0000F9FB0000AF
:104CFC00F0FB0000E7FB0000DEFB0000D5FB000032
:104D0C00CCFB0000C3FB0000BAFB0000B1FB0000B1
:104D1C00A8FB00009EFB000095FB00008CFB000034
:104D2C0083FB000079FB000070FB000066FB0000B9
:104D3C005DFB000053FB00004AFB000040FB000041
:104D4C0036FB00002DFB000023FB000019FB0000CC
:104D5C000FFB000005FB0000FCFA0000F2FA00005B
:104D6C00E8FA0000DEFA0000D4FA0000CAFA0000EB
:104D7C00C0FA0000B5FA0000ABFA0000A1FA00007E
:104D8C0097FA00008CFA000082FA000078FA000012
:104D9C006DFA000063FA000058FA00004EFA0000A9
:104DAC0043FA000039FA00002EFA000023FA000042
:104DBC0019FA00000EFA000003FA0000F8F90000DE
:104DCC00EDF90000E3F90000D8F90000CDF900007E
:104DDC00C2F90000B7F90000ABF90000A0F900001F
:104DEC0095F900008AF900007FF9000073F90000C2
:104DFC0068F900005DF9000051F9000046F9000067
:104E0C003BF900002FF9000023F9000018F900000D
:104E1C000CF9000001F90000F5F80000E9F80000B9
:104E2C00DDF80000D2F80000C6F80000BAF8000067
:104E3C00AEF80000A2F8000096F800008AF8000016
:104E4C007EF8000072F8000066F800005AF80000C6
:104E5C004DF8000041F8000035F8000028F800007B
:104E6C001CF8000010F8000003F80000F7F7000031
:104E7C00EAF70000DEF70000D1F70000C5F70000EC
:104E8C00B8F70000ABF700009EF7000092F70000A7
:104E9C0085F7000078F700006BF700005EF7000064
:104EAC0051F7000044F7000037F700002AF7000024
:104EBC001DF7000010F7000003F70000F5F60000E6
:104ECC00E8F60000DBF60000CEF60000C0F60000AD
:104EDC00B3F60000A5F6000098F600008AF6000074
:104EEC007DF600006FF6000062F6000054F600003C
:104EFC0046F6000038F600002BF600001DF6000008
:104F0C000FF6000001F60000F3F50000E5F50000D7
:104F1C00D7F50000C9F50000BBF50000ADF50000A9
:104F2C009FF5000091F5000082F5000074F500007B
:104F3C0066F5000058F5000049F500003BF500004F
:104F4C002CF500001EF500000FF5000001F5000027
:104F5C00F2F40000E4F40000D5F40000C6F4000004
:104F6C00B8F40000A9F400009AF400008BF40000DF
:104F7C007CF400006DF400005EF400004FF40000BF
:104F8C0040F4000031F4000022F4000013F400009F
:104F9C0004F40000F5F30000E5F30000D6F3000084
:104FAC00C7F30000B7F30000A8F3000098F300006B
:104FBC0089F3000079F300006AF300005AF3000053
:104FCC004BF300003BF300002BF300001CF300003C
:104FDC000CF30000FCF20000ECF20000DCF200002C
:104FEC00CCF20000BDF20000ADF200009CF200001B
:104FFC008CF200007CF200006CF200005CF200000D
:10500C004CF200003CF200002BF200001BF20000FE
:10501C000BF20000FAF10000EAF10000D9F10000F7
:10502C00C9F10000B8F10000A8F1000097F10000F0
:10503C0087F1000076F1000065F1000054F10000EA
:10504C0044F1000033F1000022F1000011F10000E6
:10505C0000F10000EFF00000DEF00000CDF00000E9
:10506C00BCF00000ABF000009AF0000089F00000EA
:10507C0077F0000066F0000055F0000043F00000EF
:10508C0032F0000021F000000FF00000FEEF0000F5
:10509C00ECEF0000DBEF0000C9EF0000B7EF000001
:1050AC00A6EF000094EF000082EF000071EF00000B
:1050BC005FEF00004DEF00003BEF000029EF000018
:1050CC0017EF000005EF0000F3EE0000E1EE00002A
:1050DC00CFEE0000BDEE0000ABEE000099EE00003C
:1050EC0086EE000074EE000062EE00004FEE000051
:1050FC003DEE00002BEE000018EE000006EE000066
:10510C00F3ED0000E1ED0000CEED0000BBED000082
:10511C00A9ED000096ED000083ED000071ED00009C
:10512C005EED00004BED000038ED000025ED0000B9
:10513C0012ED0000FFEC0000ECEC0000D9EC0000DC
:10514C00C6EC0000B3EC0000A0EC00008CEC0000FE
:10515C0079EC000066EC000053EC00003FEC000022
:10516C002CEC000019EC000005EC0000F2EB000048
:10517C00DEEB0000CBEB0000B7EB0000A3EB000074
:10518C0090EB00007CEB000068EB000054EB00009F
:10519C0041EB00002DEB000019EB000005EB0000CB
:1051AC00F1EA0000DDEA0000C9EA0000B5EA0000FF
:1051BC00A1EA00008DEA000079EA000064EA000030
:1051CC0050EA00003CEA000028EA000013EA000064
:1051DC00FFE90000EBE90000D6E90000C2E900009D
:1051EC00ADE9000099E9000084E900006FE90000D6
:1051FC005BE9000046E9000031E900001DE9000010
:10520C0008E90000F3E80000DEE80000C9E800004F
:10521C00B4E800009FE800008AE8000075E8000090
:10522C0060E800004BE8000036E8000021E80000D0
:10523C000CE80000F6E70000E1E70000CCE7000016
:10524C00B6E70000A1E700008CE7000076E700005D
:10525C0061E700004BE7000036E7000020E70000A4
:10526C000AE70000F5E60000DFE60000C9E60000F2
:10527C00B3E600009EE6000088E6000072E600003F
:10528C005CE6000046E6000030E600001AE600008E
:10529C0004E60000EEE50000D8E50000C2E50000E1
:1052AC00ABE5000095E500007FE5000069E5000036
:1052BC0052E500003CE5000026E500000FE500008B
:1052CC00F9E40000E2E40000CCE40000B5E40000E6
:1052DC009FE4000088E4000071E400005BE400003F
:1052EC0044E400002DE4000016E40000FFE300009D
:1052FC00E9E30000D2E30000BBE30000A4E30000FC
:10530C008DE3000076E300005FE3000047E300005C
:10531C0030E3000019E3000002E30000EBE20000C0
:10532C00D3E20000BCE20000A5E200008DE2000028
:10533C0076E200005EE2000047E200002FE200008F
:10534C0018E2000000E20000E9E10000D1E10000F9
:10535C00B9E10000A2E100008AE1000072E1000066
:10536C005AE1000042E100002AE1000012E10000D5
:10537C00FAE00000E2E00000CAE00000B2E0000049
:10538C009AE0000082E000006AE0000052E00000B9
:10539C003AE0000021E0000009E00000F1DF00002D
:1053AC00D8DF0000C0DF0000A7DF00008FDF0000A7
:1053BC0076DF00005EDF000045DF00002DDF00001F
:1053CC0014DF0000FBDE0000E3DE0000CADE00009C
:1053DC00B1DE000098DE00007FDE000067DE00001A
:1053EC004EDE000035DE00001CDE000003DE000097
:1053FC00EADD0000D1DD0000B8DD00009EDD00001C
:10540C0085DD00006CDD000053DD000039DD00009F
:10541C0020DD000007DD0000EDDC0000D4DC000026
:10542C00BBDC0000A1DC000088DC00006EDC0000AE
:10543C0054DC00003BDC000021DC000008DC000038
:10544C00EEDB0000D4DB0000BADB0000A1DB0000C7
:10545C0087DB00006DDB000053DB000039DB000054
:10546C001FDB000005DB0000EBDA0000D1DA0000E6
:10547C00B7DA00009DDA000082DA000068DA00007A
:10548C004EDA000034DA000019DA0000FFD900000F
:10549C00E5D90000CAD90000B0D9000095D90000A8
:1054AC007BD9000060D9000046D900002BD9000040
:1054BC0011D90000F6D80000DBD80000C1D80000DC
:1054CC00A6D800008BD8000070D8000055D800007A
:1054DC003AD800001FD8000004D80000EAD700001A
:1054EC00CED70000B3D7000098D700007DD70000BE
:1054FC0062D7000047D700002CD7000010D700005F
:10550C00F5D60000DAD60000BED60000A3D6000007
:10551C0088D600006CD6000051D6000035D60000AD
:10552C001AD60000FED50000E3D50000C7D5000058
:10553C00ABD5000090D5000074D5000058D5000004
:10554C003CD5000020D5000005D50000E9D40000B2
:10555C00CDD40000B1D4000095D4000079D4000063
:10556C005DD4000041D4000024D4000008D4000015
:10557C00ECD30000D0D30000B4D3000097D30000CC
:10558C007BD300005FD3000042D3000026D3000081
:10559C000AD30000EDD20000D1D20000B4D200003A
:1055AC0097D200007BD200005ED2000042D20000F5
:1055BC0025D2000008D20000EBD10000CFD10000B2
:1055CC00B2D1000095D1000078D100005BD1000071
:1055DC003ED1000021D1000004D10000E7D0000032
:1055EC00CAD00000ADD0000090D0000073D00000F5
:1055FC0056D0000038D000001BD00000FECF0000B9
:10560C00E0CF0000C3CF0000A6CF000088CF000081
:10561C006BCF00004DCF000030CF000012CF000048
:10562C00F5CE0000D7CE0000BACE00009CCE000014
:10563C007ECE000060CE000043CE000025CE0000E0
:10564C0007CE0000E9CD0000CBCD0000ADCD0000B1
:10565C0090CD000072CD000054CD000036CD00007E
:10566C0017CD0000F9CC0000DBCC0000BDCC000055
:10567C009FCC000081CC000062CC000044CC000028
:10568C0026CC000007CC0000E9CB0000CBCB0000FF
:10569C00ACCB00008ECB00006FCB000051CB0000D8
:1056AC0032CB000014CB0000F5CA0000D6CA0000B3
:1056BC00B8CA000099CA00007ACA00005BCA000090
:1056CC003DCA00001ECA0000FFC90000E0C900006E
:1056DC00C1C90000A2C9000083C9000064C9000050
:1056EC0045C9000026C9000007C90000E8C8000031
:1056FC00C9C80000A9C800008AC800006BC8000017
:10570C004CC800002CC800000DC80000EEC70000FB
:10571C00CEC70000AFC700008FC7000070C70000E5
:10572C0050C7000031C7000011C70000F1C60000CF
:10573C00D2C60000B2C6000092C6000073C60000BC
:10574C0053C6000033C6000013C60000F3C50000AA
:10575C00D4C50000B4C5000094C5000074C5000099
:10576C0054C5000034C5000014C50000F4C400008A
:10577C00D3C40000B3C4000093C4000073C4000081
:10578C0053C4000032C4000012C40000F2C3000075
:10579C00D1C30000B1C3000091C3000070C300006E
:1057AC0050C300002FC300000FC30000EEC2000066
:1057BC00CDC20000ADC200008CC200006BC2000064
:1057CC004BC200002AC2000009C20000E8C1000060
:1057DC00C8C10000A7C1000086C1000065C100005F
:1057EC0044C1000023C1000002C10000E1C0000060
:1057FC00C0C000009FC000007EC000005CC0000064
:10580C003BC000001AC00000F9BF0000D8BF000068
:10581C00B6BF000095BF000074BF000052BF00006F
:10582C0031BF00000FBF0000EEBE0000CCBE000078
:10583C00ABBE000089BE000068BE000046BE000082
:10584C0024BE000003BE0000E1BD0000BFBD00008F
:10585C009EBD00007CBD00005ABD000038BD00009C
:10586C0016BD0000F4BC0000D2BC0000B0BC0000AF
:10587C008FBC00006DBC00004ABC000028BC0000BE
:10588C0006BC0000E4BB0000C2BB0000A0BB0000D3
:10589C007EBB00005BBB000039BB000017BB0000E7
:1058AC00F4BA0000D2BA0000B0BA00008DBA000001
:1058BC006BBA000048BA000026BA000003BA000018
:1058CC00E1B90000BEB900009CB9000079B9000034
:1058DC0056B9000034B9000011B90000EEB8000050
:1058EC00CCB80000A9B8000086B8000063B800006E
:1058FC0040B800001DB80000FAB70000D7B7000090
:10590C00B4B7000091B700006EB700004BB70000B1
:10591C0028B7000005B70000E2B60000BFB60000D3
:10592C009BB6000078B6000055B6000032B60000F9
:10593C000EB60000EBB50000C8B50000A4B5000021
:10594C0081B500005DB500003AB5000016B5000049
:10595C00F3B40000CFB40000ACB4000088B4000075
:10596C0064B4000041B400001DB40000F9B30000A1
:10597C00D5B30000B2B300008EB300006AB30000D0
:10598C0046B3000022B30000FEB20000DAB2000001
:10599C00B6B2000092B200006EB200004AB2000033
:1059AC0026B2000002B20000DEB10000BAB1000065
:1059BC0096B1000071B100004DB1000029B100009A
:1059CC0004B10000E0B00000BCB0000097B00000D3
:1059DC0073B000004FB000002AB0000006B0000009
:1059EC00E1AF0000BDAF000098AF000073AF000046
:1059FC004FAF00002AAF000006AF0000E1AE000080
:105A0C00BCAE000097AE000073AE00004EAE0000BE
:105A1C0029AE000004AE0000DFAD0000BAAD0000FE
:105A2C0095AD000070AD00004BAD000026AD000040
:105A3C0001AD0000DCAC0000B7AC000092AC000083
:105A4C006DAC000048AC000023AC0000FDAB0000C6
:105A5C00D8AB0000B3AB00008EAB000068AB00000D
:105A6C0043AB00001EAB0000F8AA0000D3AA000054
:105A7C00ADAA000088AA000062AA00003DAA00009E
:105A8C0017AA0000F2A90000CCA90000A6A90000EA
:105A9C0081A900005BA9000035A9000010A9000035
:105AAC00EAA80000C4A800009EA8000078A8000086
:105ABC0053A800002DA8000007A80000E1A70000D3
